{
  "contractName": "ABIMarket",
  "abi": [
    {
      "anonymous": false,
      "inputs": [
        {
          "indexed": false,
          "internalType": "bytes32",
          "name": "orderId",
          "type": "bytes32"
        },
        {
          "indexed": true,
          "internalType": "address",
          "name": "tokenAddress",
          "type": "address"
        },
        {
          "indexed": true,
          "internalType": "uint256",
          "name": "tokenId",
          "type": "uint256"
        },
        {
          "indexed": false,
          "internalType": "address",
          "name": "currency",
          "type": "address"
        },
        {
          "indexed": false,
          "internalType": "uint256",
          "name": "price",
          "type": "uint256"
        },
        {
          "indexed": true,
          "internalType": "address",
          "name": "seller",
          "type": "address"
        },
        {
          "indexed": false,
          "internalType": "address",
          "name": "buyer",
          "type": "address"
        },
        {
          "indexed": false,
          "internalType": "uint256",
          "name": "amount",
          "type": "uint256"
        },
        {
          "indexed": false,
          "internalType": "uint256",
          "name": "pay",
          "type": "uint256"
        }
      ],
      "name": "Buy",
      "type": "event"
    },
    {
      "anonymous": false,
      "inputs": [
        {
          "indexed": false,
          "internalType": "bytes32",
          "name": "orderId",
          "type": "bytes32"
        },
        {
          "indexed": true,
          "internalType": "address",
          "name": "tokenAddress",
          "type": "address"
        },
        {
          "indexed": true,
          "internalType": "uint256",
          "name": "tokenId",
          "type": "uint256"
        },
        {
          "indexed": false,
          "internalType": "address",
          "name": "currency",
          "type": "address"
        },
        {
          "indexed": false,
          "internalType": "uint256",
          "name": "price",
          "type": "uint256"
        },
        {
          "indexed": true,
          "internalType": "address",
          "name": "seller",
          "type": "address"
        }
      ],
      "name": "Cancel",
      "type": "event"
    },
    {
      "anonymous": false,
      "inputs": [
        {
          "indexed": false,
          "internalType": "uint8",
          "name": "version",
          "type": "uint8"
        }
      ],
      "name": "Initialized",
      "type": "event"
    },
    {
      "anonymous": false,
      "inputs": [
        {
          "indexed": true,
          "internalType": "address",
          "name": "previousOwner",
          "type": "address"
        },
        {
          "indexed": true,
          "internalType": "address",
          "name": "newOwner",
          "type": "address"
        }
      ],
      "name": "OwnershipTransferred",
      "type": "event"
    },
    {
      "anonymous": false,
      "inputs": [
        {
          "indexed": false,
          "internalType": "bytes32",
          "name": "orderId",
          "type": "bytes32"
        },
        {
          "indexed": true,
          "internalType": "address",
          "name": "tokenAddress",
          "type": "address"
        },
        {
          "indexed": true,
          "internalType": "uint256",
          "name": "tokenId",
          "type": "uint256"
        },
        {
          "indexed": false,
          "internalType": "address",
          "name": "currency",
          "type": "address"
        },
        {
          "indexed": false,
          "internalType": "uint256",
          "name": "price",
          "type": "uint256"
        },
        {
          "indexed": true,
          "internalType": "address",
          "name": "seller",
          "type": "address"
        },
        {
          "indexed": false,
          "internalType": "uint256",
          "name": "amount",
          "type": "uint256"
        }
      ],
      "name": "Sell",
      "type": "event"
    },
    {
      "inputs": [],
      "name": "_devwallet",
      "outputs": [
        {
          "internalType": "address",
          "name": "",
          "type": "address"
        }
      ],
      "stateMutability": "view",
      "type": "function"
    },
    {
      "inputs": [
        {
          "internalType": "address",
          "name": "",
          "type": "address"
        }
      ],
      "name": "allowCurrencies",
      "outputs": [
        {
          "internalType": "bool",
          "name": "",
          "type": "bool"
        }
      ],
      "stateMutability": "view",
      "type": "function"
    },
    {
      "inputs": [
        {
          "internalType": "address",
          "name": "",
          "type": "address"
        },
        {
          "internalType": "address",
          "name": "",
          "type": "address"
        },
        {
          "internalType": "uint256[]",
          "name": "",
          "type": "uint256[]"
        },
        {
          "internalType": "uint256[]",
          "name": "",
          "type": "uint256[]"
        },
        {
          "internalType": "bytes",
          "name": "",
          "type": "bytes"
        }
      ],
      "name": "onERC1155BatchReceived",
      "outputs": [
        {
          "internalType": "bytes4",
          "name": "",
          "type": "bytes4"
        }
      ],
      "stateMutability": "nonpayable",
      "type": "function"
    },
    {
      "inputs": [
        {
          "internalType": "address",
          "name": "",
          "type": "address"
        },
        {
          "internalType": "address",
          "name": "",
          "type": "address"
        },
        {
          "internalType": "uint256",
          "name": "",
          "type": "uint256"
        },
        {
          "internalType": "uint256",
          "name": "",
          "type": "uint256"
        },
        {
          "internalType": "bytes",
          "name": "",
          "type": "bytes"
        }
      ],
      "name": "onERC1155Received",
      "outputs": [
        {
          "internalType": "bytes4",
          "name": "",
          "type": "bytes4"
        }
      ],
      "stateMutability": "nonpayable",
      "type": "function"
    },
    {
      "inputs": [
        {
          "internalType": "address",
          "name": "",
          "type": "address"
        }
      ],
      "name": "operators",
      "outputs": [
        {
          "internalType": "bool",
          "name": "",
          "type": "bool"
        }
      ],
      "stateMutability": "view",
      "type": "function"
    },
    {
      "inputs": [],
      "name": "owner",
      "outputs": [
        {
          "internalType": "address",
          "name": "",
          "type": "address"
        }
      ],
      "stateMutability": "view",
      "type": "function"
    },
    {
      "inputs": [],
      "name": "renounceOwnership",
      "outputs": [],
      "stateMutability": "nonpayable",
      "type": "function"
    },
    {
      "inputs": [],
      "name": "requireTicketFromOwner",
      "outputs": [
        {
          "internalType": "bool",
          "name": "",
          "type": "bool"
        }
      ],
      "stateMutability": "view",
      "type": "function"
    },
    {
      "inputs": [],
      "name": "saleOrderIdLength",
      "outputs": [
        {
          "internalType": "uint256",
          "name": "",
          "type": "uint256"
        }
      ],
      "stateMutability": "view",
      "type": "function"
    },
    {
      "inputs": [
        {
          "internalType": "uint256",
          "name": "",
          "type": "uint256"
        }
      ],
      "name": "saleOrderIds",
      "outputs": [
        {
          "internalType": "bytes32",
          "name": "",
          "type": "bytes32"
        }
      ],
      "stateMutability": "view",
      "type": "function"
    },
    {
      "inputs": [
        {
          "internalType": "bytes32",
          "name": "",
          "type": "bytes32"
        }
      ],
      "name": "saleOrdersById",
      "outputs": [
        {
          "internalType": "bytes32",
          "name": "orderId",
          "type": "bytes32"
        },
        {
          "internalType": "address",
          "name": "tokenAddress",
          "type": "address"
        },
        {
          "internalType": "uint256",
          "name": "tokenId",
          "type": "uint256"
        },
        {
          "internalType": "address",
          "name": "currency",
          "type": "address"
        },
        {
          "internalType": "uint256",
          "name": "price",
          "type": "uint256"
        },
        {
          "internalType": "address",
          "name": "seller",
          "type": "address"
        },
        {
          "internalType": "uint256",
          "name": "amount",
          "type": "uint256"
        }
      ],
      "stateMutability": "view",
      "type": "function"
    },
    {
      "inputs": [
        {
          "internalType": "bytes4",
          "name": "interfaceId",
          "type": "bytes4"
        }
      ],
      "name": "supportsInterface",
      "outputs": [
        {
          "internalType": "bool",
          "name": "",
          "type": "bool"
        }
      ],
      "stateMutability": "view",
      "type": "function"
    },
    {
      "inputs": [
        {
          "internalType": "address",
          "name": "",
          "type": "address"
        },
        {
          "internalType": "uint256",
          "name": "",
          "type": "uint256"
        }
      ],
      "name": "ticketRequire",
      "outputs": [
        {
          "internalType": "uint256",
          "name": "",
          "type": "uint256"
        }
      ],
      "stateMutability": "view",
      "type": "function"
    },
    {
      "inputs": [
        {
          "internalType": "address",
          "name": "",
          "type": "address"
        },
        {
          "internalType": "uint256",
          "name": "",
          "type": "uint256"
        },
        {
          "internalType": "address",
          "name": "",
          "type": "address"
        }
      ],
      "name": "tickets",
      "outputs": [
        {
          "internalType": "uint256",
          "name": "",
          "type": "uint256"
        }
      ],
      "stateMutability": "view",
      "type": "function"
    },
    {
      "inputs": [
        {
          "internalType": "address",
          "name": "",
          "type": "address"
        }
      ],
      "name": "tokenCommissions",
      "outputs": [
        {
          "internalType": "uint256",
          "name": "",
          "type": "uint256"
        }
      ],
      "stateMutability": "view",
      "type": "function"
    },
    {
      "inputs": [
        {
          "internalType": "address",
          "name": "",
          "type": "address"
        }
      ],
      "name": "tokenPublicSale",
      "outputs": [
        {
          "internalType": "bool",
          "name": "",
          "type": "bool"
        }
      ],
      "stateMutability": "view",
      "type": "function"
    },
    {
      "inputs": [
        {
          "internalType": "address",
          "name": "",
          "type": "address"
        }
      ],
      "name": "tokenStandards",
      "outputs": [
        {
          "internalType": "uint256",
          "name": "",
          "type": "uint256"
        }
      ],
      "stateMutability": "view",
      "type": "function"
    },
    {
      "inputs": [
        {
          "internalType": "address",
          "name": "newOwner",
          "type": "address"
        }
      ],
      "name": "transferOwnership",
      "outputs": [],
      "stateMutability": "nonpayable",
      "type": "function"
    },
    {
      "inputs": [
        {
          "internalType": "address",
          "name": "",
          "type": "address"
        }
      ],
      "name": "whitelistToken",
      "outputs": [
        {
          "internalType": "bool",
          "name": "",
          "type": "bool"
        }
      ],
      "stateMutability": "view",
      "type": "function"
    },
    {
      "inputs": [
        {
          "internalType": "address[]",
          "name": "tokens",
          "type": "address[]"
        },
        {
          "internalType": "uint256[]",
          "name": "standards",
          "type": "uint256[]"
        },
        {
          "internalType": "uint256[]",
          "name": "commissions",
          "type": "uint256[]"
        },
        {
          "internalType": "address[]",
          "name": "currencies",
          "type": "address[]"
        },
        {
          "internalType": "address[]",
          "name": "_ticketTokens",
          "type": "address[]"
        },
        {
          "internalType": "uint256[]",
          "name": "_ticketRequireTokens",
          "type": "uint256[]"
        },
        {
          "internalType": "uint256[]",
          "name": "_ticketRequireAmounts",
          "type": "uint256[]"
        }
      ],
      "name": "initialize",
      "outputs": [],
      "stateMutability": "nonpayable",
      "type": "function"
    },
    {
      "inputs": [
        {
          "internalType": "address",
          "name": "addr",
          "type": "address"
        }
      ],
      "name": "setDevwallet",
      "outputs": [],
      "stateMutability": "nonpayable",
      "type": "function"
    },
    {
      "inputs": [
        {
          "internalType": "address[]",
          "name": "addrs",
          "type": "address[]"
        },
        {
          "internalType": "bool[]",
          "name": "isOps",
          "type": "bool[]"
        }
      ],
      "name": "setOperator",
      "outputs": [],
      "stateMutability": "nonpayable",
      "type": "function"
    },
    {
      "inputs": [
        {
          "internalType": "address[]",
          "name": "addrs",
          "type": "address[]"
        },
        {
          "internalType": "bool[]",
          "name": "isAllow",
          "type": "bool[]"
        }
      ],
      "name": "setAllowedCurrencies",
      "outputs": [],
      "stateMutability": "nonpayable",
      "type": "function"
    },
    {
      "inputs": [
        {
          "internalType": "address[]",
          "name": "tokenAddrs",
          "type": "address[]"
        },
        {
          "internalType": "uint256[]",
          "name": "tokenIds",
          "type": "uint256[]"
        },
        {
          "internalType": "uint256[]",
          "name": "amounts",
          "type": "uint256[]"
        }
      ],
      "name": "setTicketRequire",
      "outputs": [],
      "stateMutability": "nonpayable",
      "type": "function"
    },
    {
      "inputs": [
        {
          "internalType": "address[]",
          "name": "tokenAddrs",
          "type": "address[]"
        },
        {
          "internalType": "uint256[]",
          "name": "tokenIds",
          "type": "uint256[]"
        },
        {
          "internalType": "address[]",
          "name": "userAddrs",
          "type": "address[]"
        },
        {
          "internalType": "uint256[]",
          "name": "amounts",
          "type": "uint256[]"
        }
      ],
      "name": "setTickets",
      "outputs": [],
      "stateMutability": "nonpayable",
      "type": "function"
    },
    {
      "inputs": [
        {
          "internalType": "bool",
          "name": "isRequire",
          "type": "bool"
        }
      ],
      "name": "setRequireTicketFromOwner",
      "outputs": [],
      "stateMutability": "nonpayable",
      "type": "function"
    },
    {
      "inputs": [
        {
          "internalType": "address[]",
          "name": "tokenAddrs",
          "type": "address[]"
        },
        {
          "internalType": "bool[]",
          "name": "isWhitelist",
          "type": "bool[]"
        },
        {
          "internalType": "uint256[]",
          "name": "standards",
          "type": "uint256[]"
        },
        {
          "internalType": "uint256[]",
          "name": "coms",
          "type": "uint256[]"
        },
        {
          "internalType": "bool[]",
          "name": "isPublicSale",
          "type": "bool[]"
        }
      ],
      "name": "setSaleToken",
      "outputs": [],
      "stateMutability": "nonpayable",
      "type": "function"
    },
    {
      "inputs": [
        {
          "internalType": "address[]",
          "name": "tokenAddrs",
          "type": "address[]"
        },
        {
          "internalType": "uint256[]",
          "name": "tokenIds",
          "type": "uint256[]"
        },
        {
          "internalType": "address[]",
          "name": "userAddrs",
          "type": "address[]"
        },
        {
          "internalType": "uint256[]",
          "name": "amounts",
          "type": "uint256[]"
        }
      ],
      "name": "increaseTicket",
      "outputs": [],
      "stateMutability": "nonpayable",
      "type": "function"
    },
    {
      "inputs": [
        {
          "internalType": "address",
          "name": "tokenAddr",
          "type": "address"
        },
        {
          "internalType": "uint256",
          "name": "tokenId",
          "type": "uint256"
        },
        {
          "internalType": "address",
          "name": "currency",
          "type": "address"
        },
        {
          "internalType": "uint256",
          "name": "price",
          "type": "uint256"
        },
        {
          "internalType": "uint256",
          "name": "amount",
          "type": "uint256"
        }
      ],
      "name": "sell",
      "outputs": [],
      "stateMutability": "nonpayable",
      "type": "function"
    },
    {
      "inputs": [
        {
          "internalType": "address",
          "name": "tokenAddr",
          "type": "address"
        },
        {
          "internalType": "uint256",
          "name": "tokenId",
          "type": "uint256"
        },
        {
          "internalType": "address",
          "name": "currency",
          "type": "address"
        },
        {
          "internalType": "uint256",
          "name": "price",
          "type": "uint256"
        },
        {
          "internalType": "uint256",
          "name": "amount",
          "type": "uint256"
        }
      ],
      "name": "ownerSell",
      "outputs": [],
      "stateMutability": "nonpayable",
      "type": "function"
    },
    {
      "inputs": [
        {
          "internalType": "bytes32",
          "name": "orderId",
          "type": "bytes32"
        },
        {
          "internalType": "uint256",
          "name": "amount",
          "type": "uint256"
        },
        {
          "internalType": "uint256",
          "name": "pay",
          "type": "uint256"
        }
      ],
      "name": "buy",
      "outputs": [],
      "stateMutability": "nonpayable",
      "type": "function"
    },
    {
      "inputs": [
        {
          "internalType": "bytes32",
          "name": "orderId",
          "type": "bytes32"
        }
      ],
      "name": "cancel",
      "outputs": [],
      "stateMutability": "nonpayable",
      "type": "function"
    }
  ],
  "bytecode": "0x608060405234801561001057600080fd5b506153c5806100206000396000f3fe608060405234801561001057600080fd5b506004361061020d576000357c010000000000000000000000000000000000000000000000000000000090048063aeeaf3771161012c578063c055088a116100bf578063f09cda5d1161008e578063f09cda5d1461060e578063f23a6e611461062a578063f2fde38b1461065a578063fc18d034146106765761020d565b8063c055088a1461058a578063c4d252f5146105ba578063c5188569146105d6578063dde974c9146105f25761020d565b8063bb759549116100fb578063bb759549146104de578063bc197c81146104fa578063bcbf0ea11461052a578063bf64cf3a1461055a5761020d565b8063aeeaf3771461042c578063b041196e1461045c578063b307673214610492578063bac3787b146104ae5761020d565b80636af2d04a116101a457806385dc98491161017357806385dc9849146103a45780638da5cb5b146103c0578063982e03d2146103de578063a55473601461040e5761020d565b80636af2d04a14610330578063715018a61461036057806373410c341461036a57806384643eff146103885761020d565b80632d28dd8d116101e05780632d28dd8d146102ac57806351ec2e31146102c857806354311ea1146102e45780636247f6f2146103005761020d565b806301ffc9a7146102125780630b3a50b31461024257806313e7c9d81461025e5780631c4a78ef1461028e575b600080fd5b61022c6004803603810190610227919061444d565b610692565b6040516102399190614871565b60405180910390f35b61025c60048036038101906102579190613f88565b61070c565b005b61027860048036038101906102739190613d0f565b610883565b6040516102859190614871565b60405180910390f35b6102966108a3565b6040516102a391906147c7565b60405180910390f35b6102c660048036038101906102c19190613f11565b6108c9565b005b6102e260048036038101906102dd91906141a6565b610934565b005b6102fe60048036038101906102f991906140e3565b610aea565b005b61031a60048036038101906103159190613d0f565b610d1e565b6040516103279190614871565b60405180910390f35b61034a60048036038101906103459190613d0f565b610d3e565b6040516103579190614c09565b60405180910390f35b610368610d56565b005b610372610dde565b60405161037f9190614c09565b60405180910390f35b6103a2600480360381019061039d9190613f88565b610de4565b005b6103be60048036038101906103b991906140e3565b610f5b565b005b6103c86111b1565b6040516103d591906147c7565b60405180910390f35b6103f860048036038101906103f39190613e86565b6111db565b6040516104059190614c09565b60405180910390f35b610416611200565b6040516104239190614871565b60405180910390f35b61044660048036038101906104419190613ec2565b611213565b6040516104539190614c09565b60405180910390f35b610476600480360381019061047191906143d5565b611245565b60405161048997969594939291906148de565b60405180910390f35b6104ac60048036038101906104a79190613d0f565b6112e7565b005b6104c860048036038101906104c39190614476565b6113a7565b6040516104d5919061488c565b60405180910390f35b6104f860048036038101906104f39190614383565b6113cb565b005b610514600480360381019061050f9190613d38565b611464565b60405161052191906149f3565b60405180910390f35b610544600480360381019061053f9190613d0f565b611495565b6040516105519190614871565b60405180910390f35b610574600480360381019061056f9190613d0f565b6114b5565b6040516105819190614c09565b60405180910390f35b6105a4600480360381019061059f9190613d0f565b6114cd565b6040516105b19190614871565b60405180910390f35b6105d460048036038101906105cf91906143d5565b6114ed565b005b6105f060048036038101906105eb9190613f11565b61154f565b005b61060c6004803603810190610607919061423d565b61164d565b005b61062860048036038101906106239190613ff4565b611bd1565b005b610644600480360381019061063f9190613df7565b611faa565b60405161065191906149f3565b60405180910390f35b610674600480360381019061066f9190613d0f565b611fdb565b005b610690600480360381019061068b91906143fe565b6120d3565b005b60007f4e2312e0000000000000000000000000000000000000000000000000000000007bffffffffffffffffffffffffffffffffffffffffffffffffffffffff1916827bffffffffffffffffffffffffffffffffffffffffffffffffffffffff19161480610705575061070482612139565b5b9050919050565b6107146121a3565b73ffffffffffffffffffffffffffffffffffffffff166107326111b1565b73ffffffffffffffffffffffffffffffffffffffff1614610788576040517f08c379a000000000000000000000000000000000000000000000000000000000815260040161077f90614b49565b60405180910390fd5b60005b825181101561087e578181815181106107cd577f4e487b7100000000000000000000000000000000000000000000000000000000600052603260045260246000fd5b6020026020010151609d6000858481518110610812577f4e487b7100000000000000000000000000000000000000000000000000000000600052603260045260246000fd5b602002602001015173ffffffffffffffffffffffffffffffffffffffff1673ffffffffffffffffffffffffffffffffffffffff16815260200190815260200160002060006101000a81548160ff021916908315150217905550808061087690614f12565b91505061078b565b505050565b60986020528060005260406000206000915054906101000a900460ff1681565b609760009054906101000a900473ffffffffffffffffffffffffffffffffffffffff1681565b6002606554141561090f576040517f08c379a000000000000000000000000000000000000000000000000000000000815260040161090690614be9565b60405180910390fd5b60026065819055506109258585858585336121ab565b60016065819055505050505050565b61093c6121a3565b73ffffffffffffffffffffffffffffffffffffffff1661095a6111b1565b73ffffffffffffffffffffffffffffffffffffffff16146109b0576040517f08c379a00000000000000000000000000000000000000000000000000000000081526004016109a790614b49565b60405180910390fd5b60005b8351811015610ae4578181815181106109f5577f4e487b7100000000000000000000000000000000000000000000000000000000600052603260045260246000fd5b6020026020010151609f6000868481518110610a3a577f4e487b7100000000000000000000000000000000000000000000000000000000600052603260045260246000fd5b602002602001015173ffffffffffffffffffffffffffffffffffffffff1673ffffffffffffffffffffffffffffffffffffffff1681526020019081526020016000206000858481518110610ab7577f4e487b7100000000000000000000000000000000000000000000000000000000600052603260045260246000fd5b60200260200101518152602001908152602001600020819055508080610adc90614f12565b9150506109b3565b50505050565b610af26121a3565b73ffffffffffffffffffffffffffffffffffffffff16610b106111b1565b73ffffffffffffffffffffffffffffffffffffffff1614610b66576040517f08c379a0000000000000000000000000000000000000000000000000000000008152600401610b5d90614b49565b60405180910390fd5b60005b8251811015610d1757818181518110610bab577f4e487b7100000000000000000000000000000000000000000000000000000000600052603260045260246000fd5b6020026020010151609e6000878481518110610bf0577f4e487b7100000000000000000000000000000000000000000000000000000000600052603260045260246000fd5b602002602001015173ffffffffffffffffffffffffffffffffffffffff1673ffffffffffffffffffffffffffffffffffffffff1681526020019081526020016000206000868481518110610c6d577f4e487b7100000000000000000000000000000000000000000000000000000000600052603260045260246000fd5b602002602001015181526020019081526020016000206000858481518110610cbe577f4e487b7100000000000000000000000000000000000000000000000000000000600052603260045260246000fd5b602002602001015173ffffffffffffffffffffffffffffffffffffffff1673ffffffffffffffffffffffffffffffffffffffff168152602001908152602001600020819055508080610d0f90614f12565b915050610b69565b5050505050565b60996020528060005260406000206000915054906101000a900460ff1681565b609a6020528060005260406000206000915090505481565b610d5e6121a3565b73ffffffffffffffffffffffffffffffffffffffff16610d7c6111b1565b73ffffffffffffffffffffffffffffffffffffffff1614610dd2576040517f08c379a0000000000000000000000000000000000000000000000000000000008152600401610dc990614b49565b60405180910390fd5b610ddc60006126a8565b565b60a35481565b610dec6121a3565b73ffffffffffffffffffffffffffffffffffffffff16610e0a6111b1565b73ffffffffffffffffffffffffffffffffffffffff1614610e60576040517f08c379a0000000000000000000000000000000000000000000000000000000008152600401610e5790614b49565b60405180910390fd5b60005b8251811015610f5657818181518110610ea5577f4e487b7100000000000000000000000000000000000000000000000000000000600052603260045260246000fd5b602002602001015160986000858481518110610eea577f4e487b7100000000000000000000000000000000000000000000000000000000600052603260045260246000fd5b602002602001015173ffffffffffffffffffffffffffffffffffffffff1673ffffffffffffffffffffffffffffffffffffffff16815260200190815260200160002060006101000a81548160ff0219169083151502179055508080610f4e90614f12565b915050610e63565b505050565b609860003373ffffffffffffffffffffffffffffffffffffffff1673ffffffffffffffffffffffffffffffffffffffff16815260200190815260200160002060009054906101000a900460ff16610fe7576040517f08c379a0000000000000000000000000000000000000000000000000000000008152600401610fde90614ba9565b60405180910390fd5b60005b84518110156111aa5781818151811061102c577f4e487b7100000000000000000000000000000000000000000000000000000000600052603260045260246000fd5b6020026020010151609e6000878481518110611071577f4e487b7100000000000000000000000000000000000000000000000000000000600052603260045260246000fd5b602002602001015173ffffffffffffffffffffffffffffffffffffffff1673ffffffffffffffffffffffffffffffffffffffff16815260200190815260200160002060008684815181106110ee577f4e487b7100000000000000000000000000000000000000000000000000000000600052603260045260246000fd5b60200260200101518152602001908152602001600020600085848151811061113f577f4e487b7100000000000000000000000000000000000000000000000000000000600052603260045260246000fd5b602002602001015173ffffffffffffffffffffffffffffffffffffffff1673ffffffffffffffffffffffffffffffffffffffff16815260200190815260200160002060008282546111909190614d20565b9250508190555080806111a290614f12565b915050610fea565b5050505050565b6000603360009054906101000a900473ffffffffffffffffffffffffffffffffffffffff16905090565b609f602052816000526040600020602052806000526040600020600091509150505481565b60a060009054906101000a900460ff1681565b609e60205282600052604060002060205281600052604060002060205280600052604060002060009250925050505481565b60a16020528060005260406000206000915090508060000154908060010160009054906101000a900473ffffffffffffffffffffffffffffffffffffffff16908060020154908060030160009054906101000a900473ffffffffffffffffffffffffffffffffffffffff16908060040154908060050160009054906101000a900473ffffffffffffffffffffffffffffffffffffffff16908060060154905087565b6112ef6121a3565b73ffffffffffffffffffffffffffffffffffffffff1661130d6111b1565b73ffffffffffffffffffffffffffffffffffffffff1614611363576040517f08c379a000000000000000000000000000000000000000000000000000000000815260040161135a90614b49565b60405180910390fd5b80609760006101000a81548173ffffffffffffffffffffffffffffffffffffffff021916908373ffffffffffffffffffffffffffffffffffffffff16021790555050565b60a281815481106113b757600080fd5b906000526020600020016000915090505481565b6113d36121a3565b73ffffffffffffffffffffffffffffffffffffffff166113f16111b1565b73ffffffffffffffffffffffffffffffffffffffff1614611447576040517f08c379a000000000000000000000000000000000000000000000000000000000815260040161143e90614b49565b60405180910390fd5b8060a060006101000a81548160ff02191690831515021790555050565b600063bc197c817c010000000000000000000000000000000000000000000000000000000002905095945050505050565b609c6020528060005260406000206000915054906101000a900460ff1681565b609b6020528060005260406000206000915090505481565b609d6020528060005260406000206000915054906101000a900460ff1681565b60026065541415611533576040517f08c379a000000000000000000000000000000000000000000000000000000000815260040161152a90614be9565b60405180910390fd5b60026065819055506115448161276e565b600160658190555050565b60026065541415611595576040517f08c379a000000000000000000000000000000000000000000000000000000000815260040161158c90614be9565b60405180910390fd5b6002606581905550609860003373ffffffffffffffffffffffffffffffffffffffff1673ffffffffffffffffffffffffffffffffffffffff16815260200190815260200160002060009054906101000a900460ff16611629576040517f08c379a000000000000000000000000000000000000000000000000000000000815260040161162090614ba9565b60405180910390fd5b61163e85858585856116396111b1565b6121ab565b60016065819055505050505050565b60006116596001612b15565b9050801561167d576001600060016101000a81548160ff0219169083151502179055505b611685612c05565b61168d612c5e565b33609760006101000a81548173ffffffffffffffffffffffffffffffffffffffff021916908373ffffffffffffffffffffffffffffffffffffffff1602179055506001609860003373ffffffffffffffffffffffffffffffffffffffff1673ffffffffffffffffffffffffffffffffffffffff16815260200190815260200160002060006101000a81548160ff021916908315150217905550600160a060006101000a81548160ff02191690831515021790555060005b8851811015611980576001609960008b848151811061178c577f4e487b7100000000000000000000000000000000000000000000000000000000600052603260045260246000fd5b602002602001015173ffffffffffffffffffffffffffffffffffffffff1673ffffffffffffffffffffffffffffffffffffffff16815260200190815260200160002060006101000a81548160ff02191690831515021790555087818151811061181e577f4e487b7100000000000000000000000000000000000000000000000000000000600052603260045260246000fd5b6020026020010151609a60008b8481518110611863577f4e487b7100000000000000000000000000000000000000000000000000000000600052603260045260246000fd5b602002602001015173ffffffffffffffffffffffffffffffffffffffff1673ffffffffffffffffffffffffffffffffffffffff168152602001908152602001600020819055508681815181106118e2577f4e487b7100000000000000000000000000000000000000000000000000000000600052603260045260246000fd5b6020026020010151609b60008b8481518110611927577f4e487b7100000000000000000000000000000000000000000000000000000000600052603260045260246000fd5b602002602001015173ffffffffffffffffffffffffffffffffffffffff1673ffffffffffffffffffffffffffffffffffffffff16815260200190815260200160002081905550808061197890614f12565b915050611744565b5060005b8551811015611a38576001609d60008884815181106119cc577f4e487b7100000000000000000000000000000000000000000000000000000000600052603260045260246000fd5b602002602001015173ffffffffffffffffffffffffffffffffffffffff1673ffffffffffffffffffffffffffffffffffffffff16815260200190815260200160002060006101000a81548160ff0219169083151502179055508080611a3090614f12565b915050611984565b5060005b8451811015611b6d57828181518110611a7e577f4e487b7100000000000000000000000000000000000000000000000000000000600052603260045260246000fd5b6020026020010151609f6000878481518110611ac3577f4e487b7100000000000000000000000000000000000000000000000000000000600052603260045260246000fd5b602002602001015173ffffffffffffffffffffffffffffffffffffffff1673ffffffffffffffffffffffffffffffffffffffff1681526020019081526020016000206000868481518110611b40577f4e487b7100000000000000000000000000000000000000000000000000000000600052603260045260246000fd5b60200260200101518152602001908152602001600020819055508080611b6590614f12565b915050611a3c565b508015611bc75760008060016101000a81548160ff0219169083151502179055507f7f26b83ff96e1f2b6a682f133852f6798a09c465da95921460cefb38474024986001604051611bbe9190614a0e565b60405180910390a15b5050505050505050565b611bd96121a3565b73ffffffffffffffffffffffffffffffffffffffff16611bf76111b1565b73ffffffffffffffffffffffffffffffffffffffff1614611c4d576040517f08c379a0000000000000000000000000000000000000000000000000000000008152600401611c4490614b49565b60405180910390fd5b60005b8551811015611fa257848181518110611c92577f4e487b7100000000000000000000000000000000000000000000000000000000600052603260045260246000fd5b602002602001015160996000888481518110611cd7577f4e487b7100000000000000000000000000000000000000000000000000000000600052603260045260246000fd5b602002602001015173ffffffffffffffffffffffffffffffffffffffff1673ffffffffffffffffffffffffffffffffffffffff16815260200190815260200160002060006101000a81548160ff021916908315150217905550838181518110611d69577f4e487b7100000000000000000000000000000000000000000000000000000000600052603260045260246000fd5b6020026020010151609a6000888481518110611dae577f4e487b7100000000000000000000000000000000000000000000000000000000600052603260045260246000fd5b602002602001015173ffffffffffffffffffffffffffffffffffffffff1673ffffffffffffffffffffffffffffffffffffffff16815260200190815260200160002081905550828181518110611e2d577f4e487b7100000000000000000000000000000000000000000000000000000000600052603260045260246000fd5b6020026020010151609b6000888481518110611e72577f4e487b7100000000000000000000000000000000000000000000000000000000600052603260045260246000fd5b602002602001015173ffffffffffffffffffffffffffffffffffffffff1673ffffffffffffffffffffffffffffffffffffffff16815260200190815260200160002081905550818181518110611ef1577f4e487b7100000000000000000000000000000000000000000000000000000000600052603260045260246000fd5b6020026020010151609c6000888481518110611f36577f4e487b7100000000000000000000000000000000000000000000000000000000600052603260045260246000fd5b602002602001015173ffffffffffffffffffffffffffffffffffffffff1673ffffffffffffffffffffffffffffffffffffffff16815260200190815260200160002060006101000a81548160ff0219169083151502179055508080611f9a90614f12565b915050611c50565b505050505050565b600063f23a6e617c010000000000000000000000000000000000000000000000000000000002905095945050505050565b611fe36121a3565b73ffffffffffffffffffffffffffffffffffffffff166120016111b1565b73ffffffffffffffffffffffffffffffffffffffff1614612057576040517f08c379a000000000000000000000000000000000000000000000000000000000815260040161204e90614b49565b60405180910390fd5b600073ffffffffffffffffffffffffffffffffffffffff168173ffffffffffffffffffffffffffffffffffffffff1614156120c7576040517f08c379a00000000000000000000000000000000000000000000000000000000081526004016120be90614a49565b60405180910390fd5b6120d0816126a8565b50565b60026065541415612119576040517f08c379a000000000000000000000000000000000000000000000000000000000815260040161211090614be9565b60405180910390fd5b600260658190555061212c838383612cb7565b6001606581905550505050565b60007f01ffc9a7000000000000000000000000000000000000000000000000000000007bffffffffffffffffffffffffffffffffffffffffffffffffffffffff1916827bffffffffffffffffffffffffffffffffffffffffffffffffffffffff1916149050919050565b600033905090565b609960008773ffffffffffffffffffffffffffffffffffffffff1673ffffffffffffffffffffffffffffffffffffffff16815260200190815260200160002060009054906101000a900460ff16612237576040517f08c379a000000000000000000000000000000000000000000000000000000000815260040161222e90614a29565b60405180910390fd5b61223f6111b1565b73ffffffffffffffffffffffffffffffffffffffff168173ffffffffffffffffffffffffffffffffffffffff1614806122c15750609c60008773ffffffffffffffffffffffffffffffffffffffff1673ffffffffffffffffffffffffffffffffffffffff16815260200190815260200160002060009054906101000a900460ff165b612300576040517f08c379a00000000000000000000000000000000000000000000000000000000081526004016122f790614b29565b60405180910390fd5b609d60008573ffffffffffffffffffffffffffffffffffffffff1673ffffffffffffffffffffffffffffffffffffffff16815260200190815260200160002060009054906101000a900460ff1661238c576040517f08c379a000000000000000000000000000000000000000000000000000000000815260040161238390614aa9565b60405180910390fd5b6001609a60008873ffffffffffffffffffffffffffffffffffffffff1673ffffffffffffffffffffffffffffffffffffffff1681526020019081526020016000205414156123d957600094505b6002609a60008873ffffffffffffffffffffffffffffffffffffffff1673ffffffffffffffffffffffffffffffffffffffff16815260200190815260200160002054141561242657600191505b600042878787878660405160200161244396959493929190614757565b60405160208183030381529060405280519060200120905060006040518060e001604052808381526020018973ffffffffffffffffffffffffffffffffffffffff1681526020018881526020018773ffffffffffffffffffffffffffffffffffffffff1681526020018681526020018473ffffffffffffffffffffffffffffffffffffffff1681526020018581525090506124e1888885308861352b565b60a282908060018154018082558091505060019003906000526020600020016000909190919091505560a28054905060a3819055508060a16000836000015181526020019081526020016000206000820151816000015560208201518160010160006101000a81548173ffffffffffffffffffffffffffffffffffffffff021916908373ffffffffffffffffffffffffffffffffffffffff1602179055506040820151816002015560608201518160030160006101000a81548173ffffffffffffffffffffffffffffffffffffffff021916908373ffffffffffffffffffffffffffffffffffffffff1602179055506080820151816004015560a08201518160050160006101000a81548173ffffffffffffffffffffffffffffffffffffffff021916908373ffffffffffffffffffffffffffffffffffffffff16021790555060c082015181600601559050508273ffffffffffffffffffffffffffffffffffffffff16878973ffffffffffffffffffffffffffffffffffffffff167fea16fc41b2ad346a55ba45b3f3a5140ed2784930872aaf4d1d018f102566474484600001518a8a8a60405161269694939291906149ae565b60405180910390a45050505050505050565b6000603360009054906101000a900473ffffffffffffffffffffffffffffffffffffffff16905081603360006101000a81548173ffffffffffffffffffffffffffffffffffffffff021916908373ffffffffffffffffffffffffffffffffffffffff1602179055508173ffffffffffffffffffffffffffffffffffffffff168173ffffffffffffffffffffffffffffffffffffffff167f8be0079c531659141344cd1fd0a4f28419497f9722a3daafe3b4186f6b6457e060405160405180910390a35050565b60006001028114156127b5576040517f08c379a00000000000000000000000000000000000000000000000000000000081526004016127ac90614b69565b60405180910390fd5b600060a160008381526020019081526020016000206040518060e0016040529081600082015481526020016001820160009054906101000a900473ffffffffffffffffffffffffffffffffffffffff1673ffffffffffffffffffffffffffffffffffffffff1673ffffffffffffffffffffffffffffffffffffffff168152602001600282015481526020016003820160009054906101000a900473ffffffffffffffffffffffffffffffffffffffff1673ffffffffffffffffffffffffffffffffffffffff1673ffffffffffffffffffffffffffffffffffffffff168152602001600482015481526020016005820160009054906101000a900473ffffffffffffffffffffffffffffffffffffffff1673ffffffffffffffffffffffffffffffffffffffff1673ffffffffffffffffffffffffffffffffffffffff168152602001600682015481525050905060008160c0015111612948576040517f08c379a000000000000000000000000000000000000000000000000000000000815260040161293f90614b69565b60405180910390fd5b3373ffffffffffffffffffffffffffffffffffffffff168160a0015173ffffffffffffffffffffffffffffffffffffffff16146129ba576040517f08c379a00000000000000000000000000000000000000000000000000000000081526004016129b190614bc9565b60405180910390fd5b6129d781602001518260400151308460a001518560c0015161352b565b6129e4816000015161381a565b60a16000826000015181526020019081526020016000206000808201600090556001820160006101000a81549073ffffffffffffffffffffffffffffffffffffffff021916905560028201600090556003820160006101000a81549073ffffffffffffffffffffffffffffffffffffffff021916905560048201600090556005820160006101000a81549073ffffffffffffffffffffffffffffffffffffffff0219169055600682016000905550503373ffffffffffffffffffffffffffffffffffffffff168160400151826020015173ffffffffffffffffffffffffffffffffffffffff167f74a82b223fbc66bb7ebbea046a174b15e5b30f6955f44e46fc5559dacdc61d5e846000015185606001518660800151604051612b09939291906148a7565b60405180910390a45050565b60008060019054906101000a900460ff1615612b8c5760018260ff16148015612b445750612b423061398a565b155b612b83576040517f08c379a0000000000000000000000000000000000000000000000000000000008152600401612b7a90614ae9565b60405180910390fd5b60009050612c00565b8160ff1660008054906101000a900460ff1660ff1610612be1576040517f08c379a0000000000000000000000000000000000000000000000000000000008152600401612bd890614ae9565b60405180910390fd5b816000806101000a81548160ff021916908360ff160217905550600190505b919050565b600060019054906101000a900460ff16612c54576040517f08c379a0000000000000000000000000000000000000000000000000000000008152600401612c4b90614b89565b60405180910390fd5b612c5c6139ad565b565b600060019054906101000a900460ff16612cad576040517f08c379a0000000000000000000000000000000000000000000000000000000008152600401612ca490614b89565b60405180910390fd5b612cb5613a0e565b565b6000600102831415612cfe576040517f08c379a0000000000000000000000000000000000000000000000000000000008152600401612cf590614b69565b60405180910390fd5b600060a160008581526020019081526020016000206040518060e0016040529081600082015481526020016001820160009054906101000a900473ffffffffffffffffffffffffffffffffffffffff1673ffffffffffffffffffffffffffffffffffffffff1673ffffffffffffffffffffffffffffffffffffffff168152602001600282015481526020016003820160009054906101000a900473ffffffffffffffffffffffffffffffffffffffff1673ffffffffffffffffffffffffffffffffffffffff1673ffffffffffffffffffffffffffffffffffffffff168152602001600482015481526020016005820160009054906101000a900473ffffffffffffffffffffffffffffffffffffffff1673ffffffffffffffffffffffffffffffffffffffff1673ffffffffffffffffffffffffffffffffffffffff16815260200160068201548152505090506002609a6000836020015173ffffffffffffffffffffffffffffffffffffffff1673ffffffffffffffffffffffffffffffffffffffff168152602001908152602001600020541415612e9b57600192505b600083609f6000846020015173ffffffffffffffffffffffffffffffffffffffff1673ffffffffffffffffffffffffffffffffffffffff16815260200190815260200160002060008460400151815260200190815260200160002054612f019190614da7565b9050612f0b6111b1565b73ffffffffffffffffffffffffffffffffffffffff168260a0015173ffffffffffffffffffffffffffffffffffffffff16141580612f56575060a060009054906101000a900460ff16155b15612f6057600090505b60008260c00151118015612f785750838260c0015110155b612fb7576040517f08c379a0000000000000000000000000000000000000000000000000000000008152600401612fae90614ac9565b60405180910390fd5b838260800151612fc79190614da7565b831015613009576040517f08c379a000000000000000000000000000000000000000000000000000000000815260040161300090614a69565b60405180910390fd5b609e6000836020015173ffffffffffffffffffffffffffffffffffffffff1673ffffffffffffffffffffffffffffffffffffffff16815260200190815260200160002060008360400151815260200190815260200160002060003373ffffffffffffffffffffffffffffffffffffffff1673ffffffffffffffffffffffffffffffffffffffff168152602001908152602001600020548111156130e1576040517f08c379a00000000000000000000000000000000000000000000000000000000081526004016130d890614a89565b60405180910390fd5b60006064609b6000856020015173ffffffffffffffffffffffffffffffffffffffff1673ffffffffffffffffffffffffffffffffffffffff16815260200190815260200160002054856131349190614da7565b61313e9190614d76565b9050826060015173ffffffffffffffffffffffffffffffffffffffff166323b872dd338560a0015184886131729190614e01565b6040518463ffffffff167c01000000000000000000000000000000000000000000000000000000000281526004016131ac939291906147e2565b602060405180830381600087803b1580156131c657600080fd5b505af11580156131da573d6000803e3d6000fd5b505050506040513d601f19601f820116820180604052508101906131fe91906143ac565b50826060015173ffffffffffffffffffffffffffffffffffffffff166323b872dd33609760009054906101000a900473ffffffffffffffffffffffffffffffffffffffff16846040518463ffffffff167c010000000000000000000000000000000000000000000000000000000002815260040161327e939291906147e2565b602060405180830381600087803b15801561329857600080fd5b505af11580156132ac573d6000803e3d6000fd5b505050506040513d601f19601f820116820180604052508101906132d091906143ac565b506132e68360200151846040015130338961352b565b6000858460c001516132f89190614e01565b905060008114156133c457613310846000015161381a565b60a16000856000015181526020019081526020016000206000808201600090556001820160006101000a81549073ffffffffffffffffffffffffffffffffffffffff021916905560028201600090556003820160006101000a81549073ffffffffffffffffffffffffffffffffffffffff021916905560048201600090556005820160006101000a81549073ffffffffffffffffffffffffffffffffffffffff0219169055600682016000905550506133e4565b8060a1600086600001518152602001908152602001600020600601819055505b600083111561349a5782609e6000866020015173ffffffffffffffffffffffffffffffffffffffff1673ffffffffffffffffffffffffffffffffffffffff16815260200190815260200160002060008660400151815260200190815260200160002060003373ffffffffffffffffffffffffffffffffffffffff1673ffffffffffffffffffffffffffffffffffffffff16815260200190815260200160002060008282546134929190614e01565b925050819055505b8360a0015173ffffffffffffffffffffffffffffffffffffffff168460400151856020015173ffffffffffffffffffffffffffffffffffffffff167fe098641b041a8464bc8ec88acd736368234ce0d22515748d2dda913a23868537876000015188606001518960800151338d8d60405161351a9695949392919061494d565b60405180910390a450505050505050565b6001609a60008773ffffffffffffffffffffffffffffffffffffffff1673ffffffffffffffffffffffffffffffffffffffff168152602001908152602001600020541415613624578473ffffffffffffffffffffffffffffffffffffffff166323b872dd8484846040518463ffffffff167c01000000000000000000000000000000000000000000000000000000000281526004016135cc939291906147e2565b602060405180830381600087803b1580156135e657600080fd5b505af11580156135fa573d6000803e3d6000fd5b505050506040513d601f19601f8201168201806040525081019061361e91906143ac565b50613813565b6002609a60008773ffffffffffffffffffffffffffffffffffffffff1673ffffffffffffffffffffffffffffffffffffffff1681526020019081526020016000205414156136fc578473ffffffffffffffffffffffffffffffffffffffff166323b872dd8484876040518463ffffffff167c01000000000000000000000000000000000000000000000000000000000281526004016136c5939291906147e2565b600060405180830381600087803b1580156136df57600080fd5b505af11580156136f3573d6000803e3d6000fd5b50505050613812565b6003609a60008773ffffffffffffffffffffffffffffffffffffffff1673ffffffffffffffffffffffffffffffffffffffff1681526020019081526020016000205414156137d6578473ffffffffffffffffffffffffffffffffffffffff1663f242432a848487856040518563ffffffff167c010000000000000000000000000000000000000000000000000000000002815260040161379f9493929190614819565b600060405180830381600087803b1580156137b957600080fd5b505af11580156137cd573d6000803e3d6000fd5b50505050613811565b6040517f08c379a000000000000000000000000000000000000000000000000000000000815260040161380890614b09565b60405180910390fd5b5b5b5050505050565b60005b60a280549050811015613986578160a28281548110613865577f4e487b7100000000000000000000000000000000000000000000000000000000600052603260045260246000fd5b906000526020600020015414156139735760a2600160a28054905061388a9190614e01565b815481106138c1577f4e487b7100000000000000000000000000000000000000000000000000000000600052603260045260246000fd5b906000526020600020015460a28281548110613906577f4e487b7100000000000000000000000000000000000000000000000000000000600052603260045260246000fd5b906000526020600020018190555060a280548061394c577f4e487b7100000000000000000000000000000000000000000000000000000000600052603160045260246000fd5b6001900381819060005260206000200160009055905560a28054905060a381905550613986565b808061397e90614f12565b91505061381d565b5050565b6000808273ffffffffffffffffffffffffffffffffffffffff163b119050919050565b600060019054906101000a900460ff166139fc576040517f08c379a00000000000000000000000000000000000000000000000000000000081526004016139f390614b89565b60405180910390fd5b613a0c613a076121a3565b6126a8565b565b600060019054906101000a900460ff16613a5d576040517f08c379a0000000000000000000000000000000000000000000000000000000008152600401613a5490614b89565b60405180910390fd5b6001606581905550565b6000613a7a613a7584614c49565b614c24565b90508083825260208201905082856020860282011115613a9957600080fd5b60005b85811015613ac95781613aaf8882613be9565b845260208401935060208301925050600181019050613a9c565b5050509392505050565b6000613ae6613ae184614c75565b614c24565b90508083825260208201905082856020860282011115613b0557600080fd5b60005b85811015613b355781613b1b8882613c7c565b845260208401935060208301925050600181019050613b08565b5050509392505050565b6000613b52613b4d84614ca1565b614c24565b90508083825260208201905082856020860282011115613b7157600080fd5b60005b85811015613ba15781613b878882613cfa565b845260208401935060208301925050600181019050613b74565b5050509392505050565b6000613bbe613bb984614ccd565b614c24565b905082815260208101848484011115613bd657600080fd5b613be1848285614ed2565b509392505050565b600081359050613bf88161531c565b92915050565b600082601f830112613c0f57600080fd5b8135613c1f848260208601613a67565b91505092915050565b600082601f830112613c3957600080fd5b8135613c49848260208601613ad3565b91505092915050565b600082601f830112613c6357600080fd5b8135613c73848260208601613b3f565b91505092915050565b600081359050613c8b81615333565b92915050565b600081519050613ca081615333565b92915050565b600081359050613cb58161534a565b92915050565b600081359050613cca81615361565b92915050565b600082601f830112613ce157600080fd5b8135613cf1848260208601613bab565b91505092915050565b600081359050613d0981615378565b92915050565b600060208284031215613d2157600080fd5b6000613d2f84828501613be9565b91505092915050565b600080600080600060a08688031215613d5057600080fd5b6000613d5e88828901613be9565b9550506020613d6f88828901613be9565b945050604086013567ffffffffffffffff811115613d8c57600080fd5b613d9888828901613c52565b935050606086013567ffffffffffffffff811115613db557600080fd5b613dc188828901613c52565b925050608086013567ffffffffffffffff811115613dde57600080fd5b613dea88828901613cd0565b9150509295509295909350565b600080600080600060a08688031215613e0f57600080fd5b6000613e1d88828901613be9565b9550506020613e2e88828901613be9565b9450506040613e3f88828901613cfa565b9350506060613e5088828901613cfa565b925050608086013567ffffffffffffffff811115613e6d57600080fd5b613e7988828901613cd0565b9150509295509295909350565b60008060408385031215613e9957600080fd5b6000613ea785828601613be9565b9250506020613eb885828601613cfa565b9150509250929050565b600080600060608486031215613ed757600080fd5b6000613ee586828701613be9565b9350506020613ef686828701613cfa565b9250506040613f0786828701613be9565b9150509250925092565b600080600080600060a08688031215613f2957600080fd5b6000613f3788828901613be9565b9550506020613f4888828901613cfa565b9450506040613f5988828901613be9565b9350506060613f6a88828901613cfa565b9250506080613f7b88828901613cfa565b9150509295509295909350565b60008060408385031215613f9b57600080fd5b600083013567ffffffffffffffff811115613fb557600080fd5b613fc185828601613bfe565b925050602083013567ffffffffffffffff811115613fde57600080fd5b613fea85828601613c28565b9150509250929050565b600080600080600060a0868803121561400c57600080fd5b600086013567ffffffffffffffff81111561402657600080fd5b61403288828901613bfe565b955050602086013567ffffffffffffffff81111561404f57600080fd5b61405b88828901613c28565b945050604086013567ffffffffffffffff81111561407857600080fd5b61408488828901613c52565b935050606086013567ffffffffffffffff8111156140a157600080fd5b6140ad88828901613c52565b925050608086013567ffffffffffffffff8111156140ca57600080fd5b6140d688828901613c28565b9150509295509295909350565b600080600080608085870312156140f957600080fd5b600085013567ffffffffffffffff81111561411357600080fd5b61411f87828801613bfe565b945050602085013567ffffffffffffffff81111561413c57600080fd5b61414887828801613c52565b935050604085013567ffffffffffffffff81111561416557600080fd5b61417187828801613bfe565b925050606085013567ffffffffffffffff81111561418e57600080fd5b61419a87828801613c52565b91505092959194509250565b6000806000606084860312156141bb57600080fd5b600084013567ffffffffffffffff8111156141d557600080fd5b6141e186828701613bfe565b935050602084013567ffffffffffffffff8111156141fe57600080fd5b61420a86828701613c52565b925050604084013567ffffffffffffffff81111561422757600080fd5b61423386828701613c52565b9150509250925092565b600080600080600080600060e0888a03121561425857600080fd5b600088013567ffffffffffffffff81111561427257600080fd5b61427e8a828b01613bfe565b975050602088013567ffffffffffffffff81111561429b57600080fd5b6142a78a828b01613c52565b965050604088013567ffffffffffffffff8111156142c457600080fd5b6142d08a828b01613c52565b955050606088013567ffffffffffffffff8111156142ed57600080fd5b6142f98a828b01613bfe565b945050608088013567ffffffffffffffff81111561431657600080fd5b6143228a828b01613bfe565b93505060a088013567ffffffffffffffff81111561433f57600080fd5b61434b8a828b01613c52565b92505060c088013567ffffffffffffffff81111561436857600080fd5b6143748a828b01613c52565b91505092959891949750929550565b60006020828403121561439557600080fd5b60006143a384828501613c7c565b91505092915050565b6000602082840312156143be57600080fd5b60006143cc84828501613c91565b91505092915050565b6000602082840312156143e757600080fd5b60006143f584828501613ca6565b91505092915050565b60008060006060848603121561441357600080fd5b600061442186828701613ca6565b935050602061443286828701613cfa565b925050604061444386828701613cfa565b9150509250925092565b60006020828403121561445f57600080fd5b600061446d84828501613cbb565b91505092915050565b60006020828403121561448857600080fd5b600061449684828501613cfa565b91505092915050565b6144a881614e35565b82525050565b6144bf6144ba82614e35565b614f5b565b82525050565b6144ce81614e47565b82525050565b6144dd81614e53565b82525050565b6144ec81614e5d565b82525050565b6144fb81614ec0565b82525050565b600061450e601683614d0f565b915061451982615040565b602082019050919050565b6000614531602683614d0f565b915061453c82615069565b604082019050919050565b6000614554601683614d0f565b915061455f826150b8565b602082019050919050565b6000614577601283614d0f565b9150614582826150e1565b602082019050919050565b600061459a601483614d0f565b91506145a58261510a565b602082019050919050565b60006145bd600b83614d0f565b91506145c882615133565b602082019050919050565b60006145e0602e83614d0f565b91506145eb8261515c565b604082019050919050565b6000614603601183614d0f565b915061460e826151ab565b602082019050919050565b6000614626600d83614d0f565b9150614631826151d4565b602082019050919050565b6000614649602083614d0f565b9150614654826151fd565b602082019050919050565b600061466c600a83614d0f565b915061467782615226565b602082019050919050565b600061468f600083614cfe565b915061469a8261524f565b600082019050919050565b60006146b2602b83614d0f565b91506146bd82615252565b604082019050919050565b60006146d5601083614d0f565b91506146e0826152a1565b602082019050919050565b60006146f8600a83614d0f565b9150614703826152ca565b602082019050919050565b600061471b601f83614d0f565b9150614726826152f3565b602082019050919050565b61473a81614ea9565b82525050565b61475161474c82614ea9565b614f7f565b82525050565b60006147638289614740565b60208201915061477382886144ae565b6014820191506147838287614740565b60208201915061479382866144ae565b6014820191506147a38285614740565b6020820191506147b382846144ae565b601482019150819050979650505050505050565b60006020820190506147dc600083018461449f565b92915050565b60006060820190506147f7600083018661449f565b614804602083018561449f565b6148116040830184614731565b949350505050565b600060a08201905061482e600083018761449f565b61483b602083018661449f565b6148486040830185614731565b6148556060830184614731565b818103608083015261486681614682565b905095945050505050565b600060208201905061488660008301846144c5565b92915050565b60006020820190506148a160008301846144d4565b92915050565b60006060820190506148bc60008301866144d4565b6148c9602083018561449f565b6148d66040830184614731565b949350505050565b600060e0820190506148f3600083018a6144d4565b614900602083018961449f565b61490d6040830188614731565b61491a606083018761449f565b6149276080830186614731565b61493460a083018561449f565b61494160c0830184614731565b98975050505050505050565b600060c08201905061496260008301896144d4565b61496f602083018861449f565b61497c6040830187614731565b614989606083018661449f565b6149966080830185614731565b6149a360a0830184614731565b979650505050505050565b60006080820190506149c360008301876144d4565b6149d0602083018661449f565b6149dd6040830185614731565b6149ea6060830184614731565b95945050505050565b6000602082019050614a0860008301846144e3565b92915050565b6000602082019050614a2360008301846144f2565b92915050565b60006020820190508181036000830152614a4281614501565b9050919050565b60006020820190508181036000830152614a6281614524565b9050919050565b60006020820190508181036000830152614a8281614547565b9050919050565b60006020820190508181036000830152614aa28161456a565b9050919050565b60006020820190508181036000830152614ac28161458d565b9050919050565b60006020820190508181036000830152614ae2816145b0565b9050919050565b60006020820190508181036000830152614b02816145d3565b9050919050565b60006020820190508181036000830152614b22816145f6565b9050919050565b60006020820190508181036000830152614b4281614619565b9050919050565b60006020820190508181036000830152614b628161463c565b9050919050565b60006020820190508181036000830152614b828161465f565b9050919050565b60006020820190508181036000830152614ba2816146a5565b9050919050565b60006020820190508181036000830152614bc2816146c8565b9050919050565b60006020820190508181036000830152614be2816146eb565b9050919050565b60006020820190508181036000830152614c028161470e565b9050919050565b6000602082019050614c1e6000830184614731565b92915050565b6000614c2e614c3f565b9050614c3a8282614ee1565b919050565b6000604051905090565b600067ffffffffffffffff821115614c6457614c63614fe7565b5b602082029050602081019050919050565b600067ffffffffffffffff821115614c9057614c8f614fe7565b5b602082029050602081019050919050565b600067ffffffffffffffff821115614cbc57614cbb614fe7565b5b602082029050602081019050919050565b600067ffffffffffffffff821115614ce857614ce7614fe7565b5b614cf182615016565b9050602081019050919050565b600082825260208201905092915050565b600082825260208201905092915050565b6000614d2b82614ea9565b9150614d3683614ea9565b9250827fffffffffffffffffffffffffffffffffffffffffffffffffffffffffffffffff03821115614d6b57614d6a614f89565b5b828201905092915050565b6000614d8182614ea9565b9150614d8c83614ea9565b925082614d9c57614d9b614fb8565b5b828204905092915050565b6000614db282614ea9565b9150614dbd83614ea9565b9250817fffffffffffffffffffffffffffffffffffffffffffffffffffffffffffffffff0483118215151615614df657614df5614f89565b5b828202905092915050565b6000614e0c82614ea9565b9150614e1783614ea9565b925082821015614e2a57614e29614f89565b5b828203905092915050565b6000614e4082614e89565b9050919050565b60008115159050919050565b6000819050919050565b60007fffffffff0000000000000000000000000000000000000000000000000000000082169050919050565b600073ffffffffffffffffffffffffffffffffffffffff82169050919050565b6000819050919050565b600060ff82169050919050565b6000614ecb82614eb3565b9050919050565b82818337600083830152505050565b614eea82615016565b810181811067ffffffffffffffff82111715614f0957614f08614fe7565b5b80604052505050565b6000614f1d82614ea9565b91507fffffffffffffffffffffffffffffffffffffffffffffffffffffffffffffffff821415614f5057614f4f614f89565b5b600182019050919050565b6000614f6682614f6d565b9050919050565b6000614f7882615027565b9050919050565b6000819050919050565b7f4e487b7100000000000000000000000000000000000000000000000000000000600052601160045260246000fd5b7f4e487b7100000000000000000000000000000000000000000000000000000000600052601260045260246000fd5b7f4e487b7100000000000000000000000000000000000000000000000000000000600052604160045260246000fd5b6000601f19601f8301169050919050565b60006c0100000000000000000000000082029050919050565b7f746f6b656e206e6f7420696e2077686974656c69737400000000000000000000600082015250565b7f4f776e61626c653a206e6577206f776e657220697320746865207a65726f206160008201527f6464726573730000000000000000000000000000000000000000000000000000602082015250565b7f7061796d656e74206973206e6f7420656e6f7567687400000000000000000000600082015250565b7f6e6f7420656e6f75676874207469636b65740000000000000000000000000000600082015250565b7f63757272656e6379206e6f7420616c6c6f776564000000000000000000000000600082015250565b7f6f7574206f662073616c65000000000000000000000000000000000000000000600082015250565b7f496e697469616c697a61626c653a20636f6e747261637420697320616c72656160008201527f647920696e697469616c697a6564000000000000000000000000000000000000602082015250565b7f6e6f20746f6b656e207374616e64617264000000000000000000000000000000600082015250565b7f72657175697265206f776e657200000000000000000000000000000000000000600082015250565b7f4f776e61626c653a2063616c6c6572206973206e6f7420746865206f776e6572600082015250565b7f6e6f742073616c696e6700000000000000000000000000000000000000000000600082015250565b50565b7f496e697469616c697a61626c653a20636f6e7472616374206973206e6f74206960008201527f6e697469616c697a696e67000000000000000000000000000000000000000000602082015250565b7f72657175697265206f70657261746f7200000000000000000000000000000000600082015250565b7f6e6f742073656c6c657200000000000000000000000000000000000000000000600082015250565b7f5265656e7472616e637947756172643a207265656e7472616e742063616c6c00600082015250565b61532581614e35565b811461533057600080fd5b50565b61533c81614e47565b811461534757600080fd5b50565b61535381614e53565b811461535e57600080fd5b50565b61536a81614e5d565b811461537557600080fd5b50565b61538181614ea9565b811461538c57600080fd5b5056fea2646970667358221220490b3935bcd62856ed7ad8ed509d6f36d872d375d62d5f7485ad1f35cf1a6ecc64736f6c63430008040033",
  "immutableReferences": {},
  "source": "// SPDX-License-Identifier: UNLICENSED\r\n\r\npragma solidity ^0.8.0;\r\n\r\nimport \"@openzeppelin/contracts/token/ERC20/IERC20.sol\";\r\nimport \"@openzeppelin/contracts/token/ERC721/IERC721.sol\";\r\nimport \"@openzeppelin/contracts/token/ERC1155/IERC1155.sol\";\r\nimport \"@openzeppelin/contracts/token/ERC1155/utils/ERC1155Holder.sol\";\r\nimport \"@openzeppelin/contracts-upgradeable/security/ReentrancyGuardUpgradeable.sol\";\r\nimport \"@openzeppelin/contracts-upgradeable/access/OwnableUpgradeable.sol\";\r\n\r\n\r\ncontract ABIMarket is OwnableUpgradeable, ReentrancyGuardUpgradeable, ERC1155Holder {\r\n    address public _devwallet;\r\n    mapping(address => bool) public operators; // operator contracts\r\n\r\n    struct SaleOrder {\r\n        bytes32 orderId;\r\n        address tokenAddress;\r\n        uint256 tokenId;\r\n        address currency;\r\n        uint256 price;\r\n        address seller;\r\n        uint256 amount;\r\n    }\r\n\r\n    mapping(address => bool) public whitelistToken; // token address => bool; token is allow to sale here\r\n    mapping(address => uint256) public tokenStandards; // token address => standard (0 = None, 1 = NF-ERC20, 2 = NFT-ERC721, 3 = MIX-ERC1155)\r\n    mapping(address => uint256) public tokenCommissions; // token address => comission; 2 decimal\r\n    mapping(address => bool) public tokenPublicSale; // token address => bool; user is allowed to sell token here\r\n    mapping(address => bool) public allowCurrencies; // currency allow to use\r\n\r\n    mapping(address => mapping(uint256 => mapping(address => uint256))) public tickets; // token address => token id => user address => ticket amount\r\n    mapping(address => mapping(uint256 => uint256)) public ticketRequire; // token address => token id => require amount\r\n    bool public requireTicketFromOwner;\r\n\r\n    mapping(bytes32 => SaleOrder) public saleOrdersById; // order id => sale order\r\n    bytes32[] public saleOrderIds; // array of onsell order id\r\n    uint256 public saleOrderIdLength;\r\n\r\n    event Sell(\r\n        bytes32 orderId,\r\n        address indexed tokenAddress,\r\n        uint256 indexed tokenId,\r\n        address currency,\r\n        uint256 price,\r\n        address indexed seller,\r\n        uint256 amount\r\n    );\r\n    event Buy(\r\n        bytes32 orderId,\r\n        address indexed tokenAddress,\r\n        uint256 indexed tokenId,\r\n        address currency,\r\n        uint256 price,\r\n        address indexed seller,\r\n        address buyer,\r\n        uint256 amount,\r\n        uint256 pay\r\n    );\r\n    event Cancel(\r\n        bytes32 orderId,\r\n        address indexed tokenAddress,\r\n        uint256 indexed tokenId,\r\n        address currency,\r\n        uint256 price,\r\n        address indexed seller\r\n    );\r\n\r\n    function initialize(\r\n        address[] memory tokens,\r\n        uint256[] memory standards,\r\n        uint256[] memory commissions,\r\n        address[] memory currencies,\r\n        address[] memory _ticketTokens,\r\n        uint256[] memory _ticketRequireTokens,\r\n        uint256[] memory _ticketRequireAmounts\r\n    ) external initializer {\r\n        __Ownable_init();\r\n        __ReentrancyGuard_init();\r\n\r\n        _devwallet = msg.sender;\r\n        operators[msg.sender] = true;\r\n        requireTicketFromOwner = true;\r\n\r\n        for (uint256 i = 0; i < tokens.length; i++) {\r\n            whitelistToken[tokens[i]] = true;\r\n            tokenStandards[tokens[i]] = standards[i];\r\n            tokenCommissions[tokens[i]] = commissions[i];\r\n        }\r\n\r\n        for (uint256 i = 0; i < currencies.length; i++) {\r\n            allowCurrencies[currencies[i]] = true;\r\n        }\r\n\r\n        for (uint256 i = 0; i < _ticketTokens.length; i++) {\r\n            ticketRequire[_ticketTokens[i]][_ticketRequireTokens[i]] = _ticketRequireAmounts[i];\r\n        }\r\n    }\r\n\r\n    function setDevwallet(address addr) external onlyOwner {\r\n        _devwallet = addr;\r\n    }\r\n\r\n    function setOperator(address[] memory addrs, bool[] memory isOps) external onlyOwner {\r\n        for (uint256 i = 0; i < addrs.length; i++) {\r\n            operators[addrs[i]] = isOps[i];\r\n        }\r\n    }\r\n\r\n    function setAllowedCurrencies(address[] memory addrs, bool[] memory isAllow) external onlyOwner {\r\n        for (uint256 i = 0; i < addrs.length; i++) {\r\n            allowCurrencies[addrs[i]] = isAllow[i];\r\n        }\r\n    }\r\n\r\n    function setTicketRequire(\r\n        address[] memory tokenAddrs,\r\n        uint256[] memory tokenIds,\r\n        uint256[] memory amounts\r\n    ) external onlyOwner {\r\n        for (uint256 i = 0; i < tokenAddrs.length; i++) {\r\n            ticketRequire[tokenAddrs[i]][tokenIds[i]] = amounts[i];\r\n        }\r\n    }\r\n\r\n    function setTickets(\r\n        address[] memory tokenAddrs,\r\n        uint256[] memory tokenIds,\r\n        address[] memory userAddrs,\r\n        uint256[] memory amounts\r\n    ) external onlyOwner {\r\n        for (uint256 i = 0; i < userAddrs.length; i++) {\r\n            tickets[tokenAddrs[i]][tokenIds[i]][userAddrs[i]] = amounts[i];\r\n        }\r\n    }\r\n\r\n    function setRequireTicketFromOwner(bool isRequire) external onlyOwner {\r\n        requireTicketFromOwner = isRequire;\r\n    }\r\n\r\n    function setSaleToken(\r\n        address[] memory tokenAddrs,\r\n        bool[] memory isWhitelist,\r\n        uint256[] memory standards,\r\n        uint256[] memory coms,\r\n        bool[] memory isPublicSale\r\n    ) external onlyOwner {\r\n        for (uint256 i = 0; i < tokenAddrs.length; i++) {\r\n            whitelistToken[tokenAddrs[i]] = isWhitelist[i];\r\n            tokenStandards[tokenAddrs[i]] = standards[i];\r\n            tokenCommissions[tokenAddrs[i]] = coms[i];\r\n            tokenPublicSale[tokenAddrs[i]] = isPublicSale[i];\r\n        }\r\n    }\r\n\r\n    function increaseTicket(\r\n        address[] memory tokenAddrs,\r\n        uint256[] memory tokenIds,\r\n        address[] memory userAddrs,\r\n        uint256[] memory amounts\r\n    ) external {\r\n        // only operator\r\n        require(operators[msg.sender], \"require operator\");\r\n\r\n        for (uint256 i = 0; i < tokenAddrs.length; i++) {\r\n            tickets[tokenAddrs[i]][tokenIds[i]][userAddrs[i]] += amounts[i];\r\n        }\r\n    }\r\n\r\n    function _transferToken(address tokenAddr, uint256 tokenId, address from, address to, uint256 amount) internal {\r\n        if (tokenStandards[tokenAddr] == 1) {\r\n            IERC20(tokenAddr).transferFrom(from, to, amount);\r\n        } else if (tokenStandards[tokenAddr] == 2) {\r\n            IERC721(tokenAddr).transferFrom(from, to, tokenId);\r\n        } else if (tokenStandards[tokenAddr] == 3) {\r\n            IERC1155(tokenAddr).safeTransferFrom(from, to, tokenId, amount, \"\");\r\n        } else {\r\n            revert(\"no token standard\");\r\n        }\r\n    }\r\n\r\n    function sell(\r\n        address tokenAddr,\r\n        uint256 tokenId,\r\n        address currency,\r\n        uint256 price,\r\n        uint256 amount\r\n    ) external nonReentrant {\r\n        _sell(tokenAddr, tokenId, currency, price, amount, msg.sender);\r\n    }\r\n\r\n    function ownerSell(\r\n        address tokenAddr,\r\n        uint256 tokenId,\r\n        address currency,\r\n        uint256 price,\r\n        uint256 amount\r\n    ) external nonReentrant {\r\n        require(operators[msg.sender], \"require operator\");\r\n        _sell(tokenAddr, tokenId, currency, price, amount, owner());\r\n    }\r\n\r\n    function _sell(\r\n        address tokenAddr,\r\n        uint256 tokenId,\r\n        address currency,\r\n        uint256 price,\r\n        uint256 amount,\r\n        address seller\r\n    ) internal {\r\n        require(whitelistToken[tokenAddr], \"token not in whitelist\");\r\n        require(seller == owner() || tokenPublicSale[tokenAddr], \"require owner\");\r\n        require(allowCurrencies[currency], \"currency not allowed\");\r\n\r\n        if (tokenStandards[tokenAddr] == 1) {\r\n            tokenId = 0;\r\n        }\r\n\r\n        if (tokenStandards[tokenAddr] == 2) {\r\n            amount = 1;\r\n        }\r\n\r\n        bytes32 orderId = keccak256(\r\n            abi.encodePacked(\r\n                block.timestamp,\r\n                tokenAddr,\r\n                tokenId,\r\n                currency,\r\n                price,\r\n                seller\r\n            )\r\n        );\r\n        SaleOrder memory sale = SaleOrder(\r\n            orderId,\r\n            tokenAddr,\r\n            tokenId,\r\n            currency,\r\n            price,\r\n            seller,\r\n            amount\r\n        );\r\n\r\n        _transferToken(tokenAddr, tokenId, seller, address(this), amount);\r\n\r\n        saleOrderIds.push(orderId);\r\n        saleOrderIdLength = saleOrderIds.length;\r\n        saleOrdersById[sale.orderId] = sale;\r\n\r\n        emit Sell(\r\n            sale.orderId,\r\n            tokenAddr,\r\n            tokenId,\r\n            currency,\r\n            price,\r\n            seller,\r\n            amount\r\n        );\r\n    }\r\n\r\n    function buy(bytes32 orderId, uint256 amount, uint256 pay) external nonReentrant {\r\n        _buy(orderId, amount, pay);\r\n    }\r\n\r\n    function _buy(bytes32 orderId, uint256 amount, uint256 pay) internal {\r\n        require(orderId != 0, \"not saling\");\r\n\r\n        SaleOrder memory sale = saleOrdersById[orderId];\r\n\r\n        if (tokenStandards[sale.tokenAddress] == 2) {\r\n            amount = 1;\r\n        }\r\n\r\n        uint256 totalTicketRequire = ticketRequire[sale.tokenAddress][sale.tokenId] * amount;\r\n\r\n        if (sale.seller != owner() || !requireTicketFromOwner) {\r\n            totalTicketRequire = 0;\r\n        }\r\n\r\n        require(sale.amount > 0 && sale.amount >= amount, \"out of sale\");\r\n        require(pay >= sale.price * amount, \"payment is not enought\");\r\n        require(\r\n            totalTicketRequire <= tickets[sale.tokenAddress][sale.tokenId][msg.sender],\r\n            \"not enought ticket\"\r\n        );\r\n\r\n        uint256 commissionAmount = pay * tokenCommissions[sale.tokenAddress] / 100;\r\n\r\n        IERC20(sale.currency).transferFrom(msg.sender, sale.seller, pay - commissionAmount);\r\n        IERC20(sale.currency).transferFrom(msg.sender, _devwallet, commissionAmount);\r\n\r\n        _transferToken(sale.tokenAddress, sale.tokenId, address(this), msg.sender, amount);\r\n        // _transferToken(sale.tokenAddress, sale.tokenId, sale.seller, msg.sender, amount);\r\n\r\n        uint256 remainAmount = sale.amount - amount;\r\n\r\n        if (remainAmount == 0) {\r\n            removeOrderId(sale.orderId);\r\n\r\n            delete saleOrdersById[sale.orderId];\r\n        } else {\r\n            saleOrdersById[sale.orderId].amount = remainAmount;\r\n        }\r\n\r\n        if (totalTicketRequire > 0) {\r\n            tickets[sale.tokenAddress][sale.tokenId][msg.sender] -= totalTicketRequire;\r\n        }\r\n\r\n        emit Buy(\r\n            sale.orderId,\r\n            sale.tokenAddress,\r\n            sale.tokenId,\r\n            sale.currency,\r\n            sale.price,\r\n            sale.seller,\r\n            msg.sender,\r\n            amount,\r\n            pay\r\n        );\r\n    }\r\n\r\n    function cancel(bytes32 orderId) external nonReentrant {\r\n        _cancel(orderId);\r\n    }\r\n\r\n    function _cancel(bytes32 orderId) internal {\r\n        require(orderId != 0, \"not saling\");\r\n\r\n        SaleOrder memory sale = saleOrdersById[orderId];\r\n\r\n        require(sale.amount > 0, \"not saling\");\r\n        require(sale.seller == msg.sender, \"not seller\");\r\n\r\n        _transferToken(sale.tokenAddress, sale.tokenId, address(this), sale.seller, sale.amount);\r\n\r\n        removeOrderId(sale.orderId);\r\n\r\n        delete saleOrdersById[sale.orderId];\r\n\r\n        emit Cancel(sale.orderId, sale.tokenAddress, sale.tokenId, sale.currency, sale.price, msg.sender);\r\n    }\r\n\r\n    function removeOrderId(bytes32 orderId) internal {\r\n        for (uint256 i = 0; i < saleOrderIds.length; i++) {\r\n            if (saleOrderIds[i] == orderId) {\r\n                saleOrderIds[i] = saleOrderIds[saleOrderIds.length - 1];\r\n                saleOrderIds.pop();\r\n                saleOrderIdLength = saleOrderIds.length;\r\n\r\n                break;\r\n            }\r\n        }\r\n    }\r\n}\r\n",
  "sourcePath": "/home/mrcuong/Downloads/smartcontract-dev/contracts/ABIMarket.sol",
  "compiler": {
    "name": "solc",
    "version": "0.8.4+commit.c7e474f2.Emscripten.clang"
  },
  "schemaVersion": "3.4.7",
  "updatedAt": "2022-05-19T07:58:05.697Z",
  "devdoc": {
    "kind": "dev",
    "methods": {
      "owner()": {
        "details": "Returns the address of the current owner."
      },
      "renounceOwnership()": {
        "details": "Leaves the contract without owner. It will not be possible to call `onlyOwner` functions anymore. Can only be called by the current owner. NOTE: Renouncing ownership will leave the contract without an owner, thereby removing any functionality that is only available to the owner."
      },
      "supportsInterface(bytes4)": {
        "details": "See {IERC165-supportsInterface}."
      },
      "transferOwnership(address)": {
        "details": "Transfers ownership of the contract to a new account (`newOwner`). Can only be called by the current owner."
      }
    },
    "version": 1
  },
  "userdoc": {
    "kind": "user",
    "methods": {},
    "version": 1
  }
}