{
  "contractName": "ABIOperator",
  "abi": [
    {
      "anonymous": false,
      "inputs": [
        {
          "indexed": true,
          "internalType": "address",
          "name": "tokenAddress",
          "type": "address"
        },
        {
          "indexed": false,
          "internalType": "address",
          "name": "from",
          "type": "address"
        },
        {
          "indexed": false,
          "internalType": "uint256",
          "name": "amount",
          "type": "uint256"
        }
      ],
      "name": "BurnSwap",
      "type": "event"
    },
    {
      "anonymous": false,
      "inputs": [
        {
          "indexed": true,
          "internalType": "address",
          "name": "from",
          "type": "address"
        },
        {
          "indexed": false,
          "internalType": "uint256",
          "name": "amount",
          "type": "uint256"
        }
      ],
      "name": "DepositPublicSale",
      "type": "event"
    },
    {
      "anonymous": false,
      "inputs": [
        {
          "indexed": false,
          "internalType": "uint8",
          "name": "version",
          "type": "uint8"
        }
      ],
      "name": "Initialized",
      "type": "event"
    },
    {
      "anonymous": false,
      "inputs": [
        {
          "indexed": true,
          "internalType": "address",
          "name": "tokenAddress",
          "type": "address"
        },
        {
          "indexed": false,
          "internalType": "uint256",
          "name": "tokenId",
          "type": "uint256"
        },
        {
          "indexed": false,
          "internalType": "address",
          "name": "user",
          "type": "address"
        },
        {
          "indexed": false,
          "internalType": "uint256",
          "name": "amount",
          "type": "uint256"
        }
      ],
      "name": "OpenBox",
      "type": "event"
    },
    {
      "anonymous": false,
      "inputs": [
        {
          "indexed": true,
          "internalType": "address",
          "name": "previousOwner",
          "type": "address"
        },
        {
          "indexed": true,
          "internalType": "address",
          "name": "newOwner",
          "type": "address"
        }
      ],
      "name": "OwnershipTransferred",
      "type": "event"
    },
    {
      "anonymous": false,
      "inputs": [
        {
          "indexed": true,
          "internalType": "address",
          "name": "tokenAddress",
          "type": "address"
        },
        {
          "indexed": true,
          "internalType": "uint256",
          "name": "tokenId",
          "type": "uint256"
        },
        {
          "indexed": false,
          "internalType": "address[]",
          "name": "froms",
          "type": "address[]"
        },
        {
          "indexed": false,
          "internalType": "address[]",
          "name": "tos",
          "type": "address[]"
        },
        {
          "indexed": false,
          "internalType": "uint256[]",
          "name": "amounts",
          "type": "uint256[]"
        }
      ],
      "name": "SendClaim",
      "type": "event"
    },
    {
      "anonymous": false,
      "inputs": [
        {
          "indexed": true,
          "internalType": "address",
          "name": "tokenAddress",
          "type": "address"
        },
        {
          "indexed": true,
          "internalType": "uint256",
          "name": "tokenId",
          "type": "uint256"
        },
        {
          "indexed": false,
          "internalType": "address[]",
          "name": "froms",
          "type": "address[]"
        },
        {
          "indexed": false,
          "internalType": "address[]",
          "name": "tos",
          "type": "address[]"
        },
        {
          "indexed": false,
          "internalType": "uint256[]",
          "name": "amounts",
          "type": "uint256[]"
        }
      ],
      "name": "SendSwap",
      "type": "event"
    },
    {
      "anonymous": false,
      "inputs": [
        {
          "indexed": true,
          "internalType": "address",
          "name": "tokenAddress",
          "type": "address"
        },
        {
          "indexed": false,
          "internalType": "address",
          "name": "from",
          "type": "address"
        },
        {
          "indexed": false,
          "internalType": "uint256",
          "name": "amount",
          "type": "uint256"
        }
      ],
      "name": "TransferSwap",
      "type": "event"
    },
    {
      "inputs": [],
      "name": "abit",
      "outputs": [
        {
          "internalType": "address",
          "name": "",
          "type": "address"
        }
      ],
      "stateMutability": "view",
      "type": "function"
    },
    {
      "inputs": [],
      "name": "boxt",
      "outputs": [
        {
          "internalType": "address",
          "name": "",
          "type": "address"
        }
      ],
      "stateMutability": "view",
      "type": "function"
    },
    {
      "inputs": [],
      "name": "busd",
      "outputs": [
        {
          "internalType": "address",
          "name": "",
          "type": "address"
        }
      ],
      "stateMutability": "view",
      "type": "function"
    },
    {
      "inputs": [
        {
          "internalType": "address",
          "name": "",
          "type": "address"
        }
      ],
      "name": "depositeds",
      "outputs": [
        {
          "internalType": "bool",
          "name": "",
          "type": "bool"
        }
      ],
      "stateMutability": "view",
      "type": "function"
    },
    {
      "inputs": [],
      "name": "devwallet",
      "outputs": [
        {
          "internalType": "address",
          "name": "",
          "type": "address"
        }
      ],
      "stateMutability": "view",
      "type": "function"
    },
    {
      "inputs": [],
      "name": "gart",
      "outputs": [
        {
          "internalType": "address",
          "name": "",
          "type": "address"
        }
      ],
      "stateMutability": "view",
      "type": "function"
    },
    {
      "inputs": [
        {
          "internalType": "address",
          "name": "",
          "type": "address"
        },
        {
          "internalType": "address",
          "name": "",
          "type": "address"
        },
        {
          "internalType": "uint256[]",
          "name": "",
          "type": "uint256[]"
        },
        {
          "internalType": "uint256[]",
          "name": "",
          "type": "uint256[]"
        },
        {
          "internalType": "bytes",
          "name": "",
          "type": "bytes"
        }
      ],
      "name": "onERC1155BatchReceived",
      "outputs": [
        {
          "internalType": "bytes4",
          "name": "",
          "type": "bytes4"
        }
      ],
      "stateMutability": "nonpayable",
      "type": "function"
    },
    {
      "inputs": [
        {
          "internalType": "address",
          "name": "",
          "type": "address"
        },
        {
          "internalType": "address",
          "name": "",
          "type": "address"
        },
        {
          "internalType": "uint256",
          "name": "",
          "type": "uint256"
        },
        {
          "internalType": "uint256",
          "name": "",
          "type": "uint256"
        },
        {
          "internalType": "bytes",
          "name": "",
          "type": "bytes"
        }
      ],
      "name": "onERC1155Received",
      "outputs": [
        {
          "internalType": "bytes4",
          "name": "",
          "type": "bytes4"
        }
      ],
      "stateMutability": "nonpayable",
      "type": "function"
    },
    {
      "inputs": [],
      "name": "owner",
      "outputs": [
        {
          "internalType": "address",
          "name": "",
          "type": "address"
        }
      ],
      "stateMutability": "view",
      "type": "function"
    },
    {
      "inputs": [],
      "name": "renounceOwnership",
      "outputs": [],
      "stateMutability": "nonpayable",
      "type": "function"
    },
    {
      "inputs": [],
      "name": "stone",
      "outputs": [
        {
          "internalType": "address",
          "name": "",
          "type": "address"
        }
      ],
      "stateMutability": "view",
      "type": "function"
    },
    {
      "inputs": [
        {
          "internalType": "bytes4",
          "name": "interfaceId",
          "type": "bytes4"
        }
      ],
      "name": "supportsInterface",
      "outputs": [
        {
          "internalType": "bool",
          "name": "",
          "type": "bool"
        }
      ],
      "stateMutability": "view",
      "type": "function"
    },
    {
      "inputs": [
        {
          "internalType": "address",
          "name": "",
          "type": "address"
        }
      ],
      "name": "tokenStandards",
      "outputs": [
        {
          "internalType": "uint256",
          "name": "",
          "type": "uint256"
        }
      ],
      "stateMutability": "view",
      "type": "function"
    },
    {
      "inputs": [
        {
          "internalType": "address",
          "name": "newOwner",
          "type": "address"
        }
      ],
      "name": "transferOwnership",
      "outputs": [],
      "stateMutability": "nonpayable",
      "type": "function"
    },
    {
      "inputs": [
        {
          "internalType": "address",
          "name": "_devwallet",
          "type": "address"
        },
        {
          "internalType": "address",
          "name": "_busd",
          "type": "address"
        },
        {
          "internalType": "address",
          "name": "_abit",
          "type": "address"
        },
        {
          "internalType": "address",
          "name": "_gart",
          "type": "address"
        },
        {
          "internalType": "address",
          "name": "_boxt",
          "type": "address"
        },
        {
          "internalType": "address",
          "name": "_stone",
          "type": "address"
        }
      ],
      "name": "initialize",
      "outputs": [],
      "stateMutability": "nonpayable",
      "type": "function"
    },
    {
      "inputs": [
        {
          "internalType": "uint256",
          "name": "amount",
          "type": "uint256"
        }
      ],
      "name": "depositPublicSale",
      "outputs": [],
      "stateMutability": "nonpayable",
      "type": "function"
    },
    {
      "inputs": [
        {
          "internalType": "uint256",
          "name": "tokenId",
          "type": "uint256"
        }
      ],
      "name": "openGARBox",
      "outputs": [],
      "stateMutability": "nonpayable",
      "type": "function"
    },
    {
      "inputs": [
        {
          "internalType": "address",
          "name": "addr",
          "type": "address"
        }
      ],
      "name": "setDevwallet",
      "outputs": [],
      "stateMutability": "nonpayable",
      "type": "function"
    },
    {
      "inputs": [
        {
          "internalType": "address",
          "name": "addr",
          "type": "address"
        }
      ],
      "name": "setBusd",
      "outputs": [],
      "stateMutability": "nonpayable",
      "type": "function"
    },
    {
      "inputs": [
        {
          "internalType": "address",
          "name": "addr",
          "type": "address"
        }
      ],
      "name": "setAbit",
      "outputs": [],
      "stateMutability": "nonpayable",
      "type": "function"
    },
    {
      "inputs": [
        {
          "internalType": "address",
          "name": "addr",
          "type": "address"
        }
      ],
      "name": "setGart",
      "outputs": [],
      "stateMutability": "nonpayable",
      "type": "function"
    },
    {
      "inputs": [
        {
          "internalType": "address",
          "name": "addr",
          "type": "address"
        }
      ],
      "name": "setBoxt",
      "outputs": [],
      "stateMutability": "nonpayable",
      "type": "function"
    },
    {
      "inputs": [
        {
          "internalType": "address",
          "name": "addr",
          "type": "address"
        }
      ],
      "name": "setStone",
      "outputs": [],
      "stateMutability": "nonpayable",
      "type": "function"
    },
    {
      "inputs": [
        {
          "internalType": "address",
          "name": "ship",
          "type": "address"
        },
        {
          "internalType": "address",
          "name": "market",
          "type": "address"
        },
        {
          "internalType": "uint256[]",
          "name": "shipIds",
          "type": "uint256[]"
        }
      ],
      "name": "manyShipMint",
      "outputs": [],
      "stateMutability": "nonpayable",
      "type": "function"
    },
    {
      "inputs": [
        {
          "internalType": "address",
          "name": "ship",
          "type": "address"
        },
        {
          "internalType": "address",
          "name": "market",
          "type": "address"
        },
        {
          "internalType": "uint256[]",
          "name": "shipIds",
          "type": "uint256[]"
        },
        {
          "internalType": "uint256[]",
          "name": "prices",
          "type": "uint256[]"
        }
      ],
      "name": "manyShipSale",
      "outputs": [],
      "stateMutability": "nonpayable",
      "type": "function"
    },
    {
      "inputs": [
        {
          "internalType": "address[]",
          "name": "tokens",
          "type": "address[]"
        },
        {
          "internalType": "uint256[]",
          "name": "standards",
          "type": "uint256[]"
        }
      ],
      "name": "setTokenStandards",
      "outputs": [],
      "stateMutability": "nonpayable",
      "type": "function"
    },
    {
      "inputs": [
        {
          "internalType": "address",
          "name": "tokenAddress",
          "type": "address"
        },
        {
          "internalType": "uint256",
          "name": "tokenId",
          "type": "uint256"
        },
        {
          "internalType": "address[]",
          "name": "froms",
          "type": "address[]"
        },
        {
          "internalType": "address[]",
          "name": "tos",
          "type": "address[]"
        },
        {
          "internalType": "uint256[]",
          "name": "amounts",
          "type": "uint256[]"
        }
      ],
      "name": "sendToken",
      "outputs": [],
      "stateMutability": "nonpayable",
      "type": "function"
    },
    {
      "inputs": [
        {
          "internalType": "address",
          "name": "tokenAddress",
          "type": "address"
        },
        {
          "internalType": "uint256",
          "name": "tokenId",
          "type": "uint256"
        },
        {
          "internalType": "address[]",
          "name": "froms",
          "type": "address[]"
        },
        {
          "internalType": "address[]",
          "name": "tos",
          "type": "address[]"
        },
        {
          "internalType": "uint256[]",
          "name": "amounts",
          "type": "uint256[]"
        }
      ],
      "name": "sendClaimToken",
      "outputs": [],
      "stateMutability": "nonpayable",
      "type": "function"
    },
    {
      "inputs": [
        {
          "internalType": "address",
          "name": "tokenAddress",
          "type": "address"
        },
        {
          "internalType": "uint256",
          "name": "tokenId",
          "type": "uint256"
        },
        {
          "internalType": "address[]",
          "name": "froms",
          "type": "address[]"
        },
        {
          "internalType": "address[]",
          "name": "tos",
          "type": "address[]"
        },
        {
          "internalType": "uint256[]",
          "name": "amounts",
          "type": "uint256[]"
        }
      ],
      "name": "sendSwapToken",
      "outputs": [],
      "stateMutability": "nonpayable",
      "type": "function"
    },
    {
      "inputs": [
        {
          "internalType": "address",
          "name": "tokenAddress",
          "type": "address"
        },
        {
          "internalType": "uint256",
          "name": "tokenId",
          "type": "uint256"
        },
        {
          "internalType": "uint256",
          "name": "amount",
          "type": "uint256"
        }
      ],
      "name": "burnTokenToSwap",
      "outputs": [],
      "stateMutability": "nonpayable",
      "type": "function"
    },
    {
      "inputs": [
        {
          "internalType": "address",
          "name": "tokenAddress",
          "type": "address"
        },
        {
          "internalType": "uint256",
          "name": "tokenId",
          "type": "uint256"
        },
        {
          "internalType": "uint256",
          "name": "amount",
          "type": "uint256"
        }
      ],
      "name": "transferTokenToSwap",
      "outputs": [],
      "stateMutability": "nonpayable",
      "type": "function"
    }
  ],
  "bytecode": "0x608060405234801561001057600080fd5b50613b53806100206000396000f3fe608060405234801561001057600080fd5b5060043610610202576000357c0100000000000000000000000000000000000000000000000000000000900480637d5b24a81161012c578063bc197c81116100bf578063d12091501161008e578063d120915014610547578063ef5ecdab14610563578063f23a6e611461057f578063f2fde38b146105af57610202565b8063bc197c81146104c3578063cb30514f146104f3578063cc2a9a5b1461050f578063cd98735a1461052b57610202565b80639c6d0302116100fb5780639c6d0302146104515780639f5ae88b1461046f578063a6e137441461048b578063b3076732146104a757610202565b80637d5b24a8146103cb5780638449e0d5146103fb5780638b3994be146104175780638da5cb5b1461043357610202565b806327c61ac1116101a45780633ca5b234116101735780633ca5b2341461035757806358dad586146103755780636af2d04a14610391578063715018a6146103c157610202565b806327c61ac1146102e5578063299fc47d14610301578063385e81151461031d5780633bc9c0f21461033b57610202565b80630f4fef70116101e05780630f4fef701461027357806312f9224e1461028f5780631c58896d146102ad57806326ec110c146102c957610202565b80630167eb851461020757806301ffc9a7146102255780630b537a5214610255575b600080fd5b61020f6105cb565b60405161021c91906132eb565b60405180910390f35b61023f600480360381019061023a919061301d565b6105f1565b60405161024c91906134cb565b60405180910390f35b61025d61066b565b60405161026a91906132eb565b60405180910390f35b61028d60048036038101906102889190612e7a565b610691565b005b610297610854565b6040516102a491906132eb565b60405180910390f35b6102c760048036038101906102c29190612b57565b61087a565b005b6102e360048036038101906102de9190612b57565b61093a565b005b6102ff60048036038101906102fa9190612f88565b6109fa565b005b61031b60048036038101906103169190612e7a565b610b5e565b005b610325610d21565b60405161033291906132eb565b60405180910390f35b61035560048036038101906103509190612b57565b610d47565b005b61035f610e07565b60405161036c91906132eb565b60405180910390f35b61038f600480360381019061038a9190612b57565b610e2d565b005b6103ab60048036038101906103a69190612b57565b610eed565b6040516103b891906135fc565b60405180910390f35b6103c9610f05565b005b6103e560048036038101906103e09190612b57565b610f8d565b6040516103f291906134cb565b60405180910390f35b61041560048036038101906104109190612e7a565b610fad565b005b610431600480360381019061042c9190612c32565b61111d565b005b61043b611334565b60405161044891906132eb565b60405180910390f35b61045961135e565b60405161046691906132eb565b60405180910390f35b61048960048036038101906104849190613046565b611384565b005b6104a560048036038101906104a09190612f39565b611600565b005b6104c160048036038101906104bc9190612b57565b6116da565b005b6104dd60048036038101906104d89190612d2c565b61179a565b6040516104ea91906134e6565b60405180910390f35b61050d60048036038101906105089190612f39565b6117cb565b005b61052960048036038101906105249190612ba9565b611882565b005b61054560048036038101906105409190612b57565b611aaa565b005b610561600480360381019061055c9190613046565b611b6a565b005b61057d60048036038101906105789190612c99565b611cec565b005b61059960048036038101906105949190612deb565b611ec6565b6040516105a691906134e6565b60405180910390f35b6105c960048036038101906105c49190612b57565b611ef7565b005b609c60009054906101000a900473ffffffffffffffffffffffffffffffffffffffff1681565b60007f4e2312e0000000000000000000000000000000000000000000000000000000007bffffffffffffffffffffffffffffffffffffffffffffffffffffffff1916827bffffffffffffffffffffffffffffffffffffffffffffffffffffffff19161480610664575061066382611fef565b5b9050919050565b609a60009054906101000a900473ffffffffffffffffffffffffffffffffffffffff1681565b610699612059565b73ffffffffffffffffffffffffffffffffffffffff166106b7611334565b73ffffffffffffffffffffffffffffffffffffffff161461070d576040517f08c379a00000000000000000000000000000000000000000000000000000000081526004016107049061359c565b60405180910390fd5b60005b83518110156107f9576107e68686868481518110610757577f4e487b7100000000000000000000000000000000000000000000000000000000600052603260045260246000fd5b6020026020010151868581518110610798577f4e487b7100000000000000000000000000000000000000000000000000000000600052603260045260246000fd5b60200260200101518686815181106107d9577f4e487b7100000000000000000000000000000000000000000000000000000000600052603260045260246000fd5b6020026020010151612061565b80806107f190613875565b915050610710565b50838573ffffffffffffffffffffffffffffffffffffffff167f179b3da69bb1fef6bb9698254194591795289a0649511181518a844941f250938585856040516108459392919061347f565b60405180910390a35050505050565b609960009054906101000a900473ffffffffffffffffffffffffffffffffffffffff1681565b610882612059565b73ffffffffffffffffffffffffffffffffffffffff166108a0611334565b73ffffffffffffffffffffffffffffffffffffffff16146108f6576040517f08c379a00000000000000000000000000000000000000000000000000000000081526004016108ed9061359c565b60405180910390fd5b80609860006101000a81548173ffffffffffffffffffffffffffffffffffffffff021916908373ffffffffffffffffffffffffffffffffffffffff16021790555050565b610942612059565b73ffffffffffffffffffffffffffffffffffffffff16610960611334565b73ffffffffffffffffffffffffffffffffffffffff16146109b6576040517f08c379a00000000000000000000000000000000000000000000000000000000081526004016109ad9061359c565b60405180910390fd5b80609c60006101000a81548173ffffffffffffffffffffffffffffffffffffffff021916908373ffffffffffffffffffffffffffffffffffffffff16021790555050565b610a02612059565b73ffffffffffffffffffffffffffffffffffffffff16610a20611334565b73ffffffffffffffffffffffffffffffffffffffff1614610a76576040517f08c379a0000000000000000000000000000000000000000000000000000000008152600401610a6d9061359c565b60405180910390fd5b60005b8251811015610b5957818181518110610abb577f4e487b7100000000000000000000000000000000000000000000000000000000600052603260045260246000fd5b6020026020010151609e6000858481518110610b00577f4e487b7100000000000000000000000000000000000000000000000000000000600052603260045260246000fd5b602002602001015173ffffffffffffffffffffffffffffffffffffffff1673ffffffffffffffffffffffffffffffffffffffff168152602001908152602001600020819055508080610b5190613875565b915050610a79565b505050565b610b66612059565b73ffffffffffffffffffffffffffffffffffffffff16610b84611334565b73ffffffffffffffffffffffffffffffffffffffff1614610bda576040517f08c379a0000000000000000000000000000000000000000000000000000000008152600401610bd19061359c565b60405180910390fd5b60005b8351811015610cc657610cb38686868481518110610c24577f4e487b7100000000000000000000000000000000000000000000000000000000600052603260045260246000fd5b6020026020010151868581518110610c65577f4e487b7100000000000000000000000000000000000000000000000000000000600052603260045260246000fd5b6020026020010151868681518110610ca6577f4e487b7100000000000000000000000000000000000000000000000000000000600052603260045260246000fd5b6020026020010151612061565b8080610cbe90613875565b915050610bdd565b50838573ffffffffffffffffffffffffffffffffffffffff167f2152efb532b14ff9abe5f420a89986f1167f0a4c28b0e3e3eda782a226d96bd6858585604051610d129392919061347f565b60405180910390a35050505050565b609760009054906101000a900473ffffffffffffffffffffffffffffffffffffffff1681565b610d4f612059565b73ffffffffffffffffffffffffffffffffffffffff16610d6d611334565b73ffffffffffffffffffffffffffffffffffffffff1614610dc3576040517f08c379a0000000000000000000000000000000000000000000000000000000008152600401610dba9061359c565b60405180910390fd5b80609960006101000a81548173ffffffffffffffffffffffffffffffffffffffff021916908373ffffffffffffffffffffffffffffffffffffffff16021790555050565b609860009054906101000a900473ffffffffffffffffffffffffffffffffffffffff1681565b610e35612059565b73ffffffffffffffffffffffffffffffffffffffff16610e53611334565b73ffffffffffffffffffffffffffffffffffffffff1614610ea9576040517f08c379a0000000000000000000000000000000000000000000000000000000008152600401610ea09061359c565b60405180910390fd5b80609b60006101000a81548173ffffffffffffffffffffffffffffffffffffffff021916908373ffffffffffffffffffffffffffffffffffffffff16021790555050565b609e6020528060005260406000206000915090505481565b610f0d612059565b73ffffffffffffffffffffffffffffffffffffffff16610f2b611334565b73ffffffffffffffffffffffffffffffffffffffff1614610f81576040517f08c379a0000000000000000000000000000000000000000000000000000000008152600401610f789061359c565b60405180910390fd5b610f8b6000612350565b565b609d6020528060005260406000206000915054906101000a900460ff1681565b610fb5612059565b73ffffffffffffffffffffffffffffffffffffffff16610fd3611334565b73ffffffffffffffffffffffffffffffffffffffff1614611029576040517f08c379a00000000000000000000000000000000000000000000000000000000081526004016110209061359c565b60405180910390fd5b60005b8351811015611115576111028686868481518110611073577f4e487b7100000000000000000000000000000000000000000000000000000000600052603260045260246000fd5b60200260200101518685815181106110b4577f4e487b7100000000000000000000000000000000000000000000000000000000600052603260045260246000fd5b60200260200101518686815181106110f5577f4e487b7100000000000000000000000000000000000000000000000000000000600052603260045260246000fd5b6020026020010151612061565b808061110d90613875565b91505061102c565b505050505050565b611125612059565b73ffffffffffffffffffffffffffffffffffffffff16611143611334565b73ffffffffffffffffffffffffffffffffffffffff1614611199576040517f08c379a00000000000000000000000000000000000000000000000000000000081526004016111909061359c565b60405180910390fd5b600082905060008173ffffffffffffffffffffffffffffffffffffffff16638da5cb5b6040518163ffffffff167c0100000000000000000000000000000000000000000000000000000000028152600401602060405180830381600087803b15801561120457600080fd5b505af1158015611218573d6000803e3d6000fd5b505050506040513d601f19601f8201168201806040525081019061123c9190612b80565b9050600085905060005b845181101561132b578173ffffffffffffffffffffffffffffffffffffffff166340c10f19848784815181106112a5577f4e487b7100000000000000000000000000000000000000000000000000000000600052603260045260246000fd5b60200260200101516040518363ffffffff167c01000000000000000000000000000000000000000000000000000000000281526004016112e6929190613395565b600060405180830381600087803b15801561130057600080fd5b505af1158015611314573d6000803e3d6000fd5b50505050808061132390613875565b915050611246565b50505050505050565b6000603360009054906101000a900473ffffffffffffffffffffffffffffffffffffffff16905090565b609b60009054906101000a900473ffffffffffffffffffffffffffffffffffffffff1681565b600260655414156113ca576040517f08c379a00000000000000000000000000000000000000000000000000000000081526004016113c1906135dc565b60405180910390fd5b6002606581905550609d60003373ffffffffffffffffffffffffffffffffffffffff1673ffffffffffffffffffffffffffffffffffffffff16815260200190815260200160002060009054906101000a900460ff161561145f576040517f08c379a00000000000000000000000000000000000000000000000000000000081526004016114569061355c565b60405180910390fd5b609860009054906101000a900473ffffffffffffffffffffffffffffffffffffffff1673ffffffffffffffffffffffffffffffffffffffff166323b872dd33609760009054906101000a900473ffffffffffffffffffffffffffffffffffffffff16846040518463ffffffff167c01000000000000000000000000000000000000000000000000000000000281526004016114fc93929190613306565b602060405180830381600087803b15801561151657600080fd5b505af115801561152a573d6000803e3d6000fd5b505050506040513d601f19601f8201168201806040525081019061154e9190612ff4565b506001609d60003373ffffffffffffffffffffffffffffffffffffffff1673ffffffffffffffffffffffffffffffffffffffff16815260200190815260200160002060006101000a81548160ff0219169083151502179055503373ffffffffffffffffffffffffffffffffffffffff167f22c0264a49b4ee3b9810545977e53b893cdd450cd5606d49218b58da8315521a826040516115ed91906135fc565b60405180910390a2600160658190555050565b60026065541415611646576040517f08c379a000000000000000000000000000000000000000000000000000000000815260040161163d906135dc565b60405180910390fd5b600260658190555061167d838333609760009054906101000a900473ffffffffffffffffffffffffffffffffffffffff1685612061565b8273ffffffffffffffffffffffffffffffffffffffff167fd41be25f9f3e14230befa123823f49cc7a893ce7f6869084483155341f4f764333836040516116c5929190613395565b60405180910390a26001606581905550505050565b6116e2612059565b73ffffffffffffffffffffffffffffffffffffffff16611700611334565b73ffffffffffffffffffffffffffffffffffffffff1614611756576040517f08c379a000000000000000000000000000000000000000000000000000000000815260040161174d9061359c565b60405180910390fd5b80609760006101000a81548173ffffffffffffffffffffffffffffffffffffffff021916908373ffffffffffffffffffffffffffffffffffffffff16021790555050565b600063bc197c817c010000000000000000000000000000000000000000000000000000000002905095945050505050565b60026065541415611811576040517f08c379a0000000000000000000000000000000000000000000000000000000008152600401611808906135dc565b60405180910390fd5b600260658190555061182583833384612416565b8273ffffffffffffffffffffffffffffffffffffffff167f922440b9b32ceea32c28a1e3eaab6666b0c219fb8184013c17bc787fc6be8ecb338360405161186d929190613395565b60405180910390a26001606581905550505050565b600061188e60016126db565b905080156118b2576001600060016101000a81548160ff0219169083151502179055505b6118ba6127cb565b6118c2612824565b86609760006101000a81548173ffffffffffffffffffffffffffffffffffffffff021916908373ffffffffffffffffffffffffffffffffffffffff16021790555085609860006101000a81548173ffffffffffffffffffffffffffffffffffffffff021916908373ffffffffffffffffffffffffffffffffffffffff16021790555084609960006101000a81548173ffffffffffffffffffffffffffffffffffffffff021916908373ffffffffffffffffffffffffffffffffffffffff16021790555083609a60006101000a81548173ffffffffffffffffffffffffffffffffffffffff021916908373ffffffffffffffffffffffffffffffffffffffff16021790555082609b60006101000a81548173ffffffffffffffffffffffffffffffffffffffff021916908373ffffffffffffffffffffffffffffffffffffffff16021790555081609c60006101000a81548173ffffffffffffffffffffffffffffffffffffffff021916908373ffffffffffffffffffffffffffffffffffffffff1602179055508015611aa15760008060016101000a81548160ff0219169083151502179055507f7f26b83ff96e1f2b6a682f133852f6798a09c465da95921460cefb38474024986001604051611a989190613501565b60405180910390a15b50505050505050565b611ab2612059565b73ffffffffffffffffffffffffffffffffffffffff16611ad0611334565b73ffffffffffffffffffffffffffffffffffffffff1614611b26576040517f08c379a0000000000000000000000000000000000000000000000000000000008152600401611b1d9061359c565b60405180910390fd5b80609a60006101000a81548173ffffffffffffffffffffffffffffffffffffffff021916908373ffffffffffffffffffffffffffffffffffffffff16021790555050565b60026065541415611bb0576040517f08c379a0000000000000000000000000000000000000000000000000000000008152600401611ba7906135dc565b60405180910390fd5b60026065819055506000609b60009054906101000a900473ffffffffffffffffffffffffffffffffffffffff1690508073ffffffffffffffffffffffffffffffffffffffff1663f5298aca338460016040518463ffffffff167c0100000000000000000000000000000000000000000000000000000000028152600401611c3993929190613411565b600060405180830381600087803b158015611c5357600080fd5b505af1158015611c67573d6000803e3d6000fd5b50505050609b60009054906101000a900473ffffffffffffffffffffffffffffffffffffffff1673ffffffffffffffffffffffffffffffffffffffff167faf02ad398f3ac91e00bd2a3267825f1e943b4470b46d72dba13eb12c355012be83336001604051611cd893929190613617565b60405180910390a250600160658190555050565b611cf4612059565b73ffffffffffffffffffffffffffffffffffffffff16611d12611334565b73ffffffffffffffffffffffffffffffffffffffff1614611d68576040517f08c379a0000000000000000000000000000000000000000000000000000000008152600401611d5f9061359c565b60405180910390fd5b600083905060005b8351811015611ebe578173ffffffffffffffffffffffffffffffffffffffff1663c518856987868481518110611dcf577f4e487b7100000000000000000000000000000000000000000000000000000000600052603260045260246000fd5b6020026020010151609960009054906101000a900473ffffffffffffffffffffffffffffffffffffffff16878681518110611e33577f4e487b7100000000000000000000000000000000000000000000000000000000600052603260045260246000fd5b602002602001015160016040518663ffffffff167c0100000000000000000000000000000000000000000000000000000000028152600401611e799594939291906133be565b600060405180830381600087803b158015611e9357600080fd5b505af1158015611ea7573d6000803e3d6000fd5b505050508080611eb690613875565b915050611d70565b505050505050565b600063f23a6e617c010000000000000000000000000000000000000000000000000000000002905095945050505050565b611eff612059565b73ffffffffffffffffffffffffffffffffffffffff16611f1d611334565b73ffffffffffffffffffffffffffffffffffffffff1614611f73576040517f08c379a0000000000000000000000000000000000000000000000000000000008152600401611f6a9061359c565b60405180910390fd5b600073ffffffffffffffffffffffffffffffffffffffff168173ffffffffffffffffffffffffffffffffffffffff161415611fe3576040517f08c379a0000000000000000000000000000000000000000000000000000000008152600401611fda9061351c565b60405180910390fd5b611fec81612350565b50565b60007f01ffc9a7000000000000000000000000000000000000000000000000000000007bffffffffffffffffffffffffffffffffffffffffffffffffffffffff1916827bffffffffffffffffffffffffffffffffffffffffffffffffffffffff1916149050919050565b600033905090565b6001609e60008773ffffffffffffffffffffffffffffffffffffffff1673ffffffffffffffffffffffffffffffffffffffff16815260200190815260200160002054141561215a578473ffffffffffffffffffffffffffffffffffffffff166323b872dd8484846040518463ffffffff167c010000000000000000000000000000000000000000000000000000000002815260040161210293929190613306565b602060405180830381600087803b15801561211c57600080fd5b505af1158015612130573d6000803e3d6000fd5b505050506040513d601f19601f820116820180604052508101906121549190612ff4565b50612349565b6002609e60008773ffffffffffffffffffffffffffffffffffffffff1673ffffffffffffffffffffffffffffffffffffffff168152602001908152602001600020541415612232578473ffffffffffffffffffffffffffffffffffffffff166323b872dd8484876040518463ffffffff167c01000000000000000000000000000000000000000000000000000000000281526004016121fb93929190613306565b600060405180830381600087803b15801561221557600080fd5b505af1158015612229573d6000803e3d6000fd5b50505050612348565b6003609e60008773ffffffffffffffffffffffffffffffffffffffff1673ffffffffffffffffffffffffffffffffffffffff16815260200190815260200160002054141561230c578473ffffffffffffffffffffffffffffffffffffffff1663f242432a848487856040518563ffffffff167c01000000000000000000000000000000000000000000000000000000000281526004016122d5949392919061333d565b600060405180830381600087803b1580156122ef57600080fd5b505af1158015612303573d6000803e3d6000fd5b50505050612347565b6040517f08c379a000000000000000000000000000000000000000000000000000000000815260040161233e9061357c565b60405180910390fd5b5b5b5050505050565b6000603360009054906101000a900473ffffffffffffffffffffffffffffffffffffffff16905081603360006101000a81548173ffffffffffffffffffffffffffffffffffffffff021916908373ffffffffffffffffffffffffffffffffffffffff1602179055508173ffffffffffffffffffffffffffffffffffffffff168173ffffffffffffffffffffffffffffffffffffffff167f8be0079c531659141344cd1fd0a4f28419497f9722a3daafe3b4186f6b6457e060405160405180910390a35050565b6001609e60008673ffffffffffffffffffffffffffffffffffffffff1673ffffffffffffffffffffffffffffffffffffffff1681526020019081526020016000205414156124ec578373ffffffffffffffffffffffffffffffffffffffff166379cc679083836040518363ffffffff167c01000000000000000000000000000000000000000000000000000000000281526004016124b5929190613395565b600060405180830381600087803b1580156124cf57600080fd5b505af11580156124e3573d6000803e3d6000fd5b505050506126d5565b6002609e60008673ffffffffffffffffffffffffffffffffffffffff1673ffffffffffffffffffffffffffffffffffffffff1681526020019081526020016000205414156125c0578373ffffffffffffffffffffffffffffffffffffffff166342966c68846040518263ffffffff167c010000000000000000000000000000000000000000000000000000000002815260040161258991906135fc565b600060405180830381600087803b1580156125a357600080fd5b505af11580156125b7573d6000803e3d6000fd5b505050506126d4565b6003609e60008673ffffffffffffffffffffffffffffffffffffffff1673ffffffffffffffffffffffffffffffffffffffff168152602001908152602001600020541415612698578373ffffffffffffffffffffffffffffffffffffffff1663f5298aca8385846040518463ffffffff167c010000000000000000000000000000000000000000000000000000000002815260040161266193929190613448565b600060405180830381600087803b15801561267b57600080fd5b505af115801561268f573d6000803e3d6000fd5b505050506126d3565b6040517f08c379a00000000000000000000000000000000000000000000000000000000081526004016126ca9061357c565b60405180910390fd5b5b5b50505050565b60008060019054906101000a900460ff16156127525760018260ff1614801561270a57506127083061287d565b155b612749576040517f08c379a00000000000000000000000000000000000000000000000000000000081526004016127409061353c565b60405180910390fd5b600090506127c6565b8160ff1660008054906101000a900460ff1660ff16106127a7576040517f08c379a000000000000000000000000000000000000000000000000000000000815260040161279e9061353c565b60405180910390fd5b816000806101000a81548160ff021916908360ff160217905550600190505b919050565b600060019054906101000a900460ff1661281a576040517f08c379a0000000000000000000000000000000000000000000000000000000008152600401612811906135bc565b60405180910390fd5b6128226128a0565b565b600060019054906101000a900460ff16612873576040517f08c379a000000000000000000000000000000000000000000000000000000000815260040161286a906135bc565b60405180910390fd5b61287b612901565b565b6000808273ffffffffffffffffffffffffffffffffffffffff163b119050919050565b600060019054906101000a900460ff166128ef576040517f08c379a00000000000000000000000000000000000000000000000000000000081526004016128e6906135bc565b60405180910390fd5b6128ff6128fa612059565b612350565b565b600060019054906101000a900460ff16612950576040517f08c379a0000000000000000000000000000000000000000000000000000000008152600401612947906135bc565b60405180910390fd5b6001606581905550565b600061296d61296884613673565b61364e565b9050808382526020820190508285602086028201111561298c57600080fd5b60005b858110156129bc57816129a28882612a70565b84526020840193506020830192505060018101905061298f565b5050509392505050565b60006129d96129d48461369f565b61364e565b905080838252602082019050828560208602820111156129f857600080fd5b60005b85811015612a285781612a0e8882612b42565b8452602084019350602083019250506001810190506129fb565b5050509392505050565b6000612a45612a40846136cb565b61364e565b905082815260208101848484011115612a5d57600080fd5b612a68848285613835565b509392505050565b600081359050612a7f81613ac1565b92915050565b600081519050612a9481613ac1565b92915050565b600082601f830112612aab57600080fd5b8135612abb84826020860161295a565b91505092915050565b600082601f830112612ad557600080fd5b8135612ae58482602086016129c6565b91505092915050565b600081519050612afd81613ad8565b92915050565b600081359050612b1281613aef565b92915050565b600082601f830112612b2957600080fd5b8135612b39848260208601612a32565b91505092915050565b600081359050612b5181613b06565b92915050565b600060208284031215612b6957600080fd5b6000612b7784828501612a70565b91505092915050565b600060208284031215612b9257600080fd5b6000612ba084828501612a85565b91505092915050565b60008060008060008060c08789031215612bc257600080fd5b6000612bd089828a01612a70565b9650506020612be189828a01612a70565b9550506040612bf289828a01612a70565b9450506060612c0389828a01612a70565b9350506080612c1489828a01612a70565b92505060a0612c2589828a01612a70565b9150509295509295509295565b600080600060608486031215612c4757600080fd5b6000612c5586828701612a70565b9350506020612c6686828701612a70565b925050604084013567ffffffffffffffff811115612c8357600080fd5b612c8f86828701612ac4565b9150509250925092565b60008060008060808587031215612caf57600080fd5b6000612cbd87828801612a70565b9450506020612cce87828801612a70565b935050604085013567ffffffffffffffff811115612ceb57600080fd5b612cf787828801612ac4565b925050606085013567ffffffffffffffff811115612d1457600080fd5b612d2087828801612ac4565b91505092959194509250565b600080600080600060a08688031215612d4457600080fd5b6000612d5288828901612a70565b9550506020612d6388828901612a70565b945050604086013567ffffffffffffffff811115612d8057600080fd5b612d8c88828901612ac4565b935050606086013567ffffffffffffffff811115612da957600080fd5b612db588828901612ac4565b925050608086013567ffffffffffffffff811115612dd257600080fd5b612dde88828901612b18565b9150509295509295909350565b600080600080600060a08688031215612e0357600080fd5b6000612e1188828901612a70565b9550506020612e2288828901612a70565b9450506040612e3388828901612b42565b9350506060612e4488828901612b42565b925050608086013567ffffffffffffffff811115612e6157600080fd5b612e6d88828901612b18565b9150509295509295909350565b600080600080600060a08688031215612e9257600080fd5b6000612ea088828901612a70565b9550506020612eb188828901612b42565b945050604086013567ffffffffffffffff811115612ece57600080fd5b612eda88828901612a9a565b935050606086013567ffffffffffffffff811115612ef757600080fd5b612f0388828901612a9a565b925050608086013567ffffffffffffffff811115612f2057600080fd5b612f2c88828901612ac4565b9150509295509295909350565b600080600060608486031215612f4e57600080fd5b6000612f5c86828701612a70565b9350506020612f6d86828701612b42565b9250506040612f7e86828701612b42565b9150509250925092565b60008060408385031215612f9b57600080fd5b600083013567ffffffffffffffff811115612fb557600080fd5b612fc185828601612a9a565b925050602083013567ffffffffffffffff811115612fde57600080fd5b612fea85828601612ac4565b9150509250929050565b60006020828403121561300657600080fd5b600061301484828501612aee565b91505092915050565b60006020828403121561302f57600080fd5b600061303d84828501612b03565b91505092915050565b60006020828403121561305857600080fd5b600061306684828501612b42565b91505092915050565b600061307b838361309f565b60208301905092915050565b600061309383836132cd565b60208301905092915050565b6130a881613790565b82525050565b6130b781613790565b82525050565b60006130c88261371c565b6130d2818561374c565b93506130dd836136fc565b8060005b8381101561310e5781516130f5888261306f565b975061310083613732565b9250506001810190506130e1565b5085935050505092915050565b600061312682613727565b613130818561375d565b935061313b8361370c565b8060005b8381101561316c5781516131538882613087565b975061315e8361373f565b92505060018101905061313f565b5085935050505092915050565b613182816137a2565b82525050565b613191816137ae565b82525050565b6131a081613811565b82525050565b6131af81613823565b82525050565b60006131c260268361377f565b91506131cd8261392d565b604082019050919050565b60006131e5602e8361377f565b91506131f08261397c565b604082019050919050565b6000613208600f8361377f565b9150613213826139cb565b602082019050919050565b600061322b60118361377f565b9150613236826139f4565b602082019050919050565b600061324e60208361377f565b915061325982613a1d565b602082019050919050565b600061327160008361376e565b915061327c82613a46565b600082019050919050565b6000613294602b8361377f565b915061329f82613a49565b604082019050919050565b60006132b7601f8361377f565b91506132c282613a98565b602082019050919050565b6132d6816137fa565b82525050565b6132e5816137fa565b82525050565b600060208201905061330060008301846130ae565b92915050565b600060608201905061331b60008301866130ae565b61332860208301856130ae565b61333560408301846132dc565b949350505050565b600060a08201905061335260008301876130ae565b61335f60208301866130ae565b61336c60408301856132dc565b61337960608301846132dc565b818103608083015261338a81613264565b905095945050505050565b60006040820190506133aa60008301856130ae565b6133b760208301846132dc565b9392505050565b600060a0820190506133d360008301886130ae565b6133e060208301876132dc565b6133ed60408301866130ae565b6133fa60608301856132dc565b6134076080830184613197565b9695505050505050565b600060608201905061342660008301866130ae565b61343360208301856132dc565b6134406040830184613197565b949350505050565b600060608201905061345d60008301866130ae565b61346a60208301856132dc565b61347760408301846132dc565b949350505050565b6000606082019050818103600083015261349981866130bd565b905081810360208301526134ad81856130bd565b905081810360408301526134c1818461311b565b9050949350505050565b60006020820190506134e06000830184613179565b92915050565b60006020820190506134fb6000830184613188565b92915050565b600060208201905061351660008301846131a6565b92915050565b60006020820190508181036000830152613535816131b5565b9050919050565b60006020820190508181036000830152613555816131d8565b9050919050565b60006020820190508181036000830152613575816131fb565b9050919050565b600060208201905081810360008301526135958161321e565b9050919050565b600060208201905081810360008301526135b581613241565b9050919050565b600060208201905081810360008301526135d581613287565b9050919050565b600060208201905081810360008301526135f5816132aa565b9050919050565b600060208201905061361160008301846132dc565b92915050565b600060608201905061362c60008301866132dc565b61363960208301856130ae565b6136466040830184613197565b949350505050565b6000613658613669565b90506136648282613844565b919050565b6000604051905090565b600067ffffffffffffffff82111561368e5761368d6138ed565b5b602082029050602081019050919050565b600067ffffffffffffffff8211156136ba576136b96138ed565b5b602082029050602081019050919050565b600067ffffffffffffffff8211156136e6576136e56138ed565b5b6136ef8261391c565b9050602081019050919050565b6000819050602082019050919050565b6000819050602082019050919050565b600081519050919050565b600081519050919050565b6000602082019050919050565b6000602082019050919050565b600082825260208201905092915050565b600082825260208201905092915050565b600082825260208201905092915050565b600082825260208201905092915050565b600061379b826137da565b9050919050565b60008115159050919050565b60007fffffffff0000000000000000000000000000000000000000000000000000000082169050919050565b600073ffffffffffffffffffffffffffffffffffffffff82169050919050565b6000819050919050565b600060ff82169050919050565b600061381c826137fa565b9050919050565b600061382e82613804565b9050919050565b82818337600083830152505050565b61384d8261391c565b810181811067ffffffffffffffff8211171561386c5761386b6138ed565b5b80604052505050565b6000613880826137fa565b91507fffffffffffffffffffffffffffffffffffffffffffffffffffffffffffffffff8214156138b3576138b26138be565b5b600182019050919050565b7f4e487b7100000000000000000000000000000000000000000000000000000000600052601160045260246000fd5b7f4e487b7100000000000000000000000000000000000000000000000000000000600052604160045260246000fd5b6000601f19601f8301169050919050565b7f4f776e61626c653a206e6577206f776e657220697320746865207a65726f206160008201527f6464726573730000000000000000000000000000000000000000000000000000602082015250565b7f496e697469616c697a61626c653a20636f6e747261637420697320616c72656160008201527f647920696e697469616c697a6564000000000000000000000000000000000000602082015250565b7f416c7265616479206465706f7369740000000000000000000000000000000000600082015250565b7f6e6f20746f6b656e207374616e64617264000000000000000000000000000000600082015250565b7f4f776e61626c653a2063616c6c6572206973206e6f7420746865206f776e6572600082015250565b50565b7f496e697469616c697a61626c653a20636f6e7472616374206973206e6f74206960008201527f6e697469616c697a696e67000000000000000000000000000000000000000000602082015250565b7f5265656e7472616e637947756172643a207265656e7472616e742063616c6c00600082015250565b613aca81613790565b8114613ad557600080fd5b50565b613ae1816137a2565b8114613aec57600080fd5b50565b613af8816137ae565b8114613b0357600080fd5b50565b613b0f816137fa565b8114613b1a57600080fd5b5056fea26469706673582212208e0d3ee5bd833d5e1f0cd545a45c8ec8fba61311f35ed61b4976413fdd0b5e9264736f6c63430008040033",
  "immutableReferences": {},
  "source": "// SPDX-License-Identifier: UNLICENSED\r\n\r\npragma solidity ^0.8.0;\r\n\r\nimport \"@openzeppelin/contracts/token/ERC20/IERC20.sol\";\r\nimport \"@openzeppelin/contracts/token/ERC721/IERC721.sol\";\r\nimport \"@openzeppelin/contracts/token/ERC1155/IERC1155.sol\";\r\nimport \"@openzeppelin/contracts/token/ERC1155/utils/ERC1155Holder.sol\";\r\nimport \"@openzeppelin/contracts-upgradeable/security/ReentrancyGuardUpgradeable.sol\";\r\nimport \"@openzeppelin/contracts-upgradeable/access/OwnableUpgradeable.sol\";\r\n\r\ninterface IBoxToken {\r\n    function burn(\r\n        address account,\r\n        uint256 tokenId,\r\n        uint256 amount\r\n    ) external;\r\n}\r\n\r\ninterface IAbiMarket {\r\n    function owner() external returns (address);\r\n\r\n    function ownerSell(\r\n        address tokenAddr,\r\n        uint256 tokenId,\r\n        address currency,\r\n        uint256 price,\r\n        uint256 amount\r\n    ) external;\r\n}\r\n\r\ninterface IERC20MintBurnable {\r\n    function mint(address _to, uint256 _amount) external;\r\n\r\n    function burnFrom(address account, uint256 amount) external;\r\n}\r\n\r\ninterface IERC721MintBurnable {\r\n    function mint(address to, uint256 _tokenId) external;\r\n\r\n    function burn(uint256 tokenId) external;\r\n}\r\n\r\ninterface IERC1155MintBurnable {\r\n    function mint(\r\n        address account,\r\n        uint256 tokenId,\r\n        uint256 amount\r\n    ) external;\r\n\r\n    function mintBatch(\r\n        address account,\r\n        uint256[] memory tokenIds,\r\n        uint256[] memory amounts\r\n    ) external;\r\n\r\n    function burn(\r\n        address account,\r\n        uint256 tokenId,\r\n        uint256 amount\r\n    ) external;\r\n\r\n    function burnBatch(\r\n        address account,\r\n        uint256[] memory tokenIds,\r\n        uint256[] memory amounts\r\n    ) external;\r\n}\r\n\r\n/**\r\n * Operator to tracking method is call from our services\r\n */\r\ncontract ABIOperator is\r\n    OwnableUpgradeable,\r\n    ReentrancyGuardUpgradeable,\r\n    ERC1155Holder\r\n{\r\n    address public devwallet;\r\n    address public busd;\r\n    address public abit;\r\n    address public gart;\r\n    address public boxt;\r\n    address public stone;\r\n\r\n    mapping(address => bool) public depositeds;\r\n\r\n    mapping(address => uint256) public tokenStandards; // token address => standard (0 = None, 1 = NF-ERC20, 2 = NFT-ERC721, 3 = MIX-ERC1155)\r\n\r\n    event DepositPublicSale(address indexed from, uint256 amount);\r\n    event SendClaim(\r\n        address indexed tokenAddress,\r\n        uint256 indexed tokenId,\r\n        address[] froms,\r\n        address[] tos,\r\n        uint256[] amounts\r\n    );\r\n    event SendSwap(\r\n        address indexed tokenAddress,\r\n        uint256 indexed tokenId,\r\n        address[] froms,\r\n        address[] tos,\r\n        uint256[] amounts\r\n    );\r\n    event BurnSwap(address indexed tokenAddress, address from, uint256 amount);\r\n    event TransferSwap(\r\n        address indexed tokenAddress,\r\n        address from,\r\n        uint256 amount\r\n    );\r\n    event OpenBox(\r\n        address indexed tokenAddress,\r\n        uint256 tokenId,\r\n        address user,\r\n        uint256 amount\r\n    );\r\n\r\n    function initialize(\r\n        address _devwallet,\r\n        address _busd,\r\n        address _abit,\r\n        address _gart,\r\n        address _boxt,\r\n        address _stone\r\n    ) external initializer {\r\n        __Ownable_init();\r\n        __ReentrancyGuard_init();\r\n\r\n        devwallet = _devwallet;\r\n        busd = _busd;\r\n        abit = _abit;\r\n        gart = _gart;\r\n        boxt = _boxt;\r\n        stone = _stone;\r\n    }\r\n\r\n    function depositPublicSale(uint256 amount) external nonReentrant {\r\n        require(!depositeds[msg.sender], \"Already deposit\");\r\n        IERC20(busd).transferFrom(msg.sender, devwallet, amount);\r\n        depositeds[msg.sender] = true;\r\n        emit DepositPublicSale(msg.sender, amount);\r\n    }\r\n\r\n    function openGARBox(uint256 tokenId) external nonReentrant {\r\n        IBoxToken box = IBoxToken(boxt);\r\n        box.burn(msg.sender, tokenId, 1);\r\n        emit OpenBox(boxt, tokenId, msg.sender, 1);\r\n    }\r\n\r\n    function setDevwallet(address addr) external onlyOwner {\r\n        devwallet = addr;\r\n    }\r\n\r\n    function setBusd(address addr) external onlyOwner {\r\n        busd = addr;\r\n    }\r\n\r\n    function setAbit(address addr) external onlyOwner {\r\n        abit = addr;\r\n    }\r\n\r\n    function setGart(address addr) external onlyOwner {\r\n        gart = addr;\r\n    }\r\n\r\n    function setBoxt(address addr) external onlyOwner {\r\n        boxt = addr;\r\n    }\r\n\r\n    function setStone(address addr) external onlyOwner {\r\n        stone = addr;\r\n    }\r\n\r\n    function manyShipMint(\r\n        address ship,\r\n        address market,\r\n        uint256[] memory shipIds\r\n    ) external onlyOwner {\r\n        IAbiMarket marketContract = IAbiMarket(market);\r\n        address marketOwner = marketContract.owner();\r\n        IERC721MintBurnable shipTokenContract = IERC721MintBurnable(ship);\r\n\r\n        for (uint256 i = 0; i < shipIds.length; i++) {\r\n            shipTokenContract.mint(marketOwner, shipIds[i]);\r\n        }\r\n    }\r\n\r\n    function manyShipSale(\r\n        address ship,\r\n        address market,\r\n        uint256[] memory shipIds,\r\n        uint256[] memory prices\r\n    ) external onlyOwner {\r\n        IAbiMarket marketContract = IAbiMarket(market);\r\n\r\n        for (uint256 i = 0; i < shipIds.length; i++) {\r\n            marketContract.ownerSell(ship, shipIds[i], abit, prices[i], 1);\r\n        }\r\n    }\r\n\r\n    function setTokenStandards(\r\n        address[] memory tokens,\r\n        uint256[] memory standards\r\n    ) external onlyOwner {\r\n        for (uint256 i = 0; i < tokens.length; i++) {\r\n            tokenStandards[tokens[i]] = standards[i];\r\n        }\r\n    }\r\n\r\n    function _transferToken(\r\n        address tokenAddr,\r\n        uint256 tokenId,\r\n        address from,\r\n        address to,\r\n        uint256 amount\r\n    ) internal {\r\n        if (tokenStandards[tokenAddr] == 1) {\r\n            IERC20(tokenAddr).transferFrom(from, to, amount);\r\n        } else if (tokenStandards[tokenAddr] == 2) {\r\n            IERC721(tokenAddr).transferFrom(from, to, tokenId);\r\n        } else if (tokenStandards[tokenAddr] == 3) {\r\n            IERC1155(tokenAddr).safeTransferFrom(from, to, tokenId, amount, \"\");\r\n        } else {\r\n            revert(\"no token standard\");\r\n        }\r\n    }\r\n\r\n    function _burnToken(\r\n        address tokenAddr,\r\n        uint256 tokenId,\r\n        address from,\r\n        uint256 amount\r\n    ) internal {\r\n        if (tokenStandards[tokenAddr] == 1) {\r\n            // ERC20\r\n            IERC20MintBurnable(tokenAddr).burnFrom(from, amount);\r\n        } else if (tokenStandards[tokenAddr] == 2) {\r\n            // ERC 721\r\n            IERC721MintBurnable(tokenAddr).burn(tokenId);\r\n        } else if (tokenStandards[tokenAddr] == 3) {\r\n            // ERC 1155\r\n            IERC1155MintBurnable(tokenAddr).burn(from, tokenId, amount);\r\n        } else {\r\n            revert(\"no token standard\");\r\n        }\r\n    }\r\n\r\n    function sendToken(\r\n        address tokenAddress,\r\n        uint256 tokenId,\r\n        address[] memory froms,\r\n        address[] memory tos,\r\n        uint256[] memory amounts\r\n    ) external onlyOwner {\r\n        for (uint256 i = 0; i < froms.length; i++) {\r\n            _transferToken(tokenAddress, tokenId, froms[i], tos[i], amounts[i]);\r\n        }\r\n    }\r\n\r\n    function sendClaimToken(\r\n        address tokenAddress,\r\n        uint256 tokenId,\r\n        address[] memory froms,\r\n        address[] memory tos,\r\n        uint256[] memory amounts\r\n    ) external onlyOwner {\r\n        for (uint256 i = 0; i < froms.length; i++) {\r\n            _transferToken(tokenAddress, tokenId, froms[i], tos[i], amounts[i]);\r\n        }\r\n        emit SendClaim(tokenAddress, tokenId, froms, tos, amounts);\r\n    }\r\n\r\n    function sendSwapToken(\r\n        address tokenAddress,\r\n        uint256 tokenId,\r\n        address[] memory froms,\r\n        address[] memory tos,\r\n        uint256[] memory amounts\r\n    ) external onlyOwner {\r\n        for (uint256 i = 0; i < froms.length; i++) {\r\n            _transferToken(tokenAddress, tokenId, froms[i], tos[i], amounts[i]);\r\n        }\r\n        emit SendSwap(tokenAddress, tokenId, froms, tos, amounts);\r\n    }\r\n\r\n    function burnTokenToSwap(\r\n        address tokenAddress,\r\n        uint256 tokenId,\r\n        uint256 amount\r\n    ) external nonReentrant {\r\n        _burnToken(tokenAddress, tokenId, msg.sender, amount);\r\n        emit BurnSwap(tokenAddress, msg.sender, amount);\r\n    }\r\n\r\n    function transferTokenToSwap(\r\n        address tokenAddress,\r\n        uint256 tokenId,\r\n        uint256 amount\r\n    ) external nonReentrant {\r\n        _transferToken(tokenAddress, tokenId, msg.sender, devwallet, amount);\r\n        emit TransferSwap(tokenAddress, msg.sender, amount);\r\n    }\r\n}\r\n",
  "sourcePath": "/home/mrcuong/Downloads/smartcontract-dev/contracts/ABIOperator.sol",
  "compiler": {
    "name": "solc",
    "version": "0.8.4+commit.c7e474f2.Emscripten.clang"
  },
  "schemaVersion": "3.4.7",
  "updatedAt": "2022-05-19T07:58:05.712Z",
  "devdoc": {
    "kind": "dev",
    "methods": {
      "owner()": {
        "details": "Returns the address of the current owner."
      },
      "renounceOwnership()": {
        "details": "Leaves the contract without owner. It will not be possible to call `onlyOwner` functions anymore. Can only be called by the current owner. NOTE: Renouncing ownership will leave the contract without an owner, thereby removing any functionality that is only available to the owner."
      },
      "supportsInterface(bytes4)": {
        "details": "See {IERC165-supportsInterface}."
      },
      "transferOwnership(address)": {
        "details": "Transfers ownership of the contract to a new account (`newOwner`). Can only be called by the current owner."
      }
    },
    "version": 1
  },
  "userdoc": {
    "kind": "user",
    "methods": {},
    "notice": "Operator to tracking method is call from our services",
    "version": 1
  }
}